{
  "address": "0xbE623bedfb701a526abe6cE80333eD10b3936563",
  "abi": [
    {
      "inputs": [
        {
          "internalType": "address",
          "name": "_governor",
          "type": "address"
        },
        {
          "internalType": "address",
          "name": "_tradeFactory",
          "type": "address"
        },
        {
          "internalType": "address",
          "name": "_weth",
          "type": "address"
        },
        {
          "internalType": "address",
          "name": "_uniswapFactory",
          "type": "address"
        },
        {
          "internalType": "address",
          "name": "_uniswapRouter",
          "type": "address"
        }
      ],
      "stateMutability": "nonpayable",
      "type": "constructor"
    },
    {
      "anonymous": false,
      "inputs": [
        {
          "indexed": false,
          "internalType": "address",
          "name": "_to",
          "type": "address"
        },
        {
          "indexed": false,
          "internalType": "address",
          "name": "token",
          "type": "address"
        },
        {
          "indexed": false,
          "internalType": "uint256",
          "name": "amount",
          "type": "uint256"
        }
      ],
      "name": "DustSent",
      "type": "event"
    },
    {
      "anonymous": false,
      "inputs": [],
      "name": "GovernorAccepted",
      "type": "event"
    },
    {
      "anonymous": false,
      "inputs": [
        {
          "indexed": false,
          "internalType": "address",
          "name": "pendingGovernor",
          "type": "address"
        }
      ],
      "name": "PendingGovernorSet",
      "type": "event"
    },
    {
      "anonymous": false,
      "inputs": [
        {
          "indexed": false,
          "internalType": "address",
          "name": "_receiver",
          "type": "address"
        },
        {
          "indexed": false,
          "internalType": "address",
          "name": "_tokenIn",
          "type": "address"
        },
        {
          "indexed": false,
          "internalType": "address",
          "name": "_tokenOut",
          "type": "address"
        },
        {
          "indexed": false,
          "internalType": "uint256",
          "name": "_amountIn",
          "type": "uint256"
        },
        {
          "indexed": false,
          "internalType": "uint256",
          "name": "_maxSlippage",
          "type": "uint256"
        },
        {
          "indexed": false,
          "internalType": "uint256",
          "name": "_receivedAmount",
          "type": "uint256"
        }
      ],
      "name": "Swapped",
      "type": "event"
    },
    {
      "inputs": [],
      "name": "ETH_ADDRESS",
      "outputs": [
        {
          "internalType": "address",
          "name": "",
          "type": "address"
        }
      ],
      "stateMutability": "view",
      "type": "function"
    },
    {
      "inputs": [],
      "name": "SLIPPAGE_PRECISION",
      "outputs": [
        {
          "internalType": "uint256",
          "name": "",
          "type": "uint256"
        }
      ],
      "stateMutability": "view",
      "type": "function"
    },
    {
      "inputs": [],
      "name": "TRADE_FACTORY",
      "outputs": [
        {
          "internalType": "address",
          "name": "",
          "type": "address"
        }
      ],
      "stateMutability": "view",
      "type": "function"
    },
    {
      "inputs": [],
      "name": "UNISWAP_FACTORY",
      "outputs": [
        {
          "internalType": "address",
          "name": "",
          "type": "address"
        }
      ],
      "stateMutability": "view",
      "type": "function"
    },
    {
      "inputs": [],
      "name": "UNISWAP_ROUTER",
      "outputs": [
        {
          "internalType": "address",
          "name": "",
          "type": "address"
        }
      ],
      "stateMutability": "view",
      "type": "function"
    },
    {
      "inputs": [],
      "name": "WETH",
      "outputs": [
        {
          "internalType": "address",
          "name": "",
          "type": "address"
        }
      ],
      "stateMutability": "view",
      "type": "function"
    },
    {
      "inputs": [],
      "name": "acceptGovernor",
      "outputs": [],
      "stateMutability": "nonpayable",
      "type": "function"
    },
    {
      "inputs": [],
      "name": "governor",
      "outputs": [
        {
          "internalType": "address",
          "name": "",
          "type": "address"
        }
      ],
      "stateMutability": "view",
      "type": "function"
    },
    {
      "inputs": [
        {
          "internalType": "address",
          "name": "_account",
          "type": "address"
        }
      ],
      "name": "isGovernor",
      "outputs": [
        {
          "internalType": "bool",
          "name": "_isGovernor",
          "type": "bool"
        }
      ],
      "stateMutability": "view",
      "type": "function"
    },
    {
      "inputs": [],
      "name": "pendingGovernor",
      "outputs": [
        {
          "internalType": "address",
          "name": "",
          "type": "address"
        }
      ],
      "stateMutability": "view",
      "type": "function"
    },
    {
      "inputs": [
        {
          "internalType": "address",
          "name": "_to",
          "type": "address"
        },
        {
          "internalType": "address",
          "name": "_token",
          "type": "address"
        },
        {
          "internalType": "uint256",
          "name": "_amount",
          "type": "uint256"
        }
      ],
      "name": "sendDust",
      "outputs": [],
      "stateMutability": "nonpayable",
      "type": "function"
    },
    {
      "inputs": [
        {
          "internalType": "address",
          "name": "_pendingGovernor",
          "type": "address"
        }
      ],
      "name": "setPendingGovernor",
      "outputs": [],
      "stateMutability": "nonpayable",
      "type": "function"
    },
    {
      "inputs": [
        {
          "internalType": "address",
          "name": "_receiver",
          "type": "address"
        },
        {
          "internalType": "address",
          "name": "_tokenIn",
          "type": "address"
        },
        {
          "internalType": "address",
          "name": "_tokenOut",
          "type": "address"
        },
        {
          "internalType": "uint256",
          "name": "_amountIn",
          "type": "uint256"
        },
        {
          "internalType": "uint256",
          "name": "_maxSlippage",
          "type": "uint256"
        }
      ],
      "name": "swap",
      "outputs": [
        {
          "internalType": "uint256",
          "name": "_receivedAmount",
          "type": "uint256"
        }
      ],
      "stateMutability": "nonpayable",
      "type": "function"
    }
  ],
  "transactionHash": "0x40c125217c37d9f62effe55c15118fd61ed4b1bdc2959131113c4e6c5f915647",
  "args": [
    "0xB82193725471dC7bfaAB1a3AB93c7b42963F3265",
    "0xc9EB13d39bd7fF767bE985f5640a43b07104b40d",
    "0x0d500B1d8E8eF31E21C99d1Db9A6444d3ADf1270",
    "0xc35DADB65012eC5796536bD9864eD8773aBc74C4",
    "0x1b02dA8Cb0d097eB8D57A175b88c7D8b47997506"
  ],
  "solcInputHash": "d30ebc85527ecdce8d39cd1c4c44d699",
  "bytecode": "0x6101206040526127106080523480156200001857600080fd5b5060405162001912380380620019128339810160408190526200003b916200016e565b8484816001600160a01b038116620000b15760405162461bcd60e51b815260206004820152602e60248201527f676f7665726e61626c652f676f7665726e6f722d73686f756c642d6e6f742d6260448201526d652d7a65726f2d6164647265737360901b60648201526084015b60405180910390fd5b600080546001600160a01b0319166001600160a01b0392831617905581166200011d5760405162461bcd60e51b815260206004820152601560248201527f537761707065723a207a65726f206164647265737300000000000000000000006044820152606401620000a8565b6001600160601b0319606091821b811660a05294811b851660c05292831b841660e05250901b166101005250620001dd9050565b80516001600160a01b03811681146200016957600080fd5b919050565b600080600080600060a0868803121562000186578081fd5b620001918662000151565b9450620001a16020870162000151565b9350620001b16040870162000151565b9250620001c16060870162000151565b9150620001d16080870162000151565b90509295509295909350565b60805160a05160601c60c05160601c60e05160601c6101005160601c6116976200027b600039600081816101e30152818161085c015281816108c30152818161090e0152610f170152600081816101bc0152610ccf01526000818161019501528181610c3001528181610c6b0152610e6a015260008181610153015281816102ef015261037801526000818161011e0152610fe501526116976000f3fe608060405234801561001057600080fd5b50600436106100cf5760003560e01c8063c74c0fac1161008c578063e343fe1211610066578063e343fe1214610218578063e43581b81461022b578063e58bb6391461025d578063f235757f1461026557600080fd5b8063c74c0fac146101b7578063d8264920146101de578063e3056a341461020557600080fd5b80630c340a24146100d45780632db8c12914610104578063453943f0146101195780637556fae61461014e578063a734f06e14610175578063ad5c464814610190575b600080fd5b6000546100e7906001600160a01b031681565b6040516001600160a01b0390911681526020015b60405180910390f35b610117610112366004611367565b610278565b005b6101407f000000000000000000000000000000000000000000000000000000000000000081565b6040519081526020016100fb565b6100e77f000000000000000000000000000000000000000000000000000000000000000081565b6100e773eeeeeeeeeeeeeeeeeeeeeeeeeeeeeeeeeeeeeeee81565b6100e77f000000000000000000000000000000000000000000000000000000000000000081565b6100e77f000000000000000000000000000000000000000000000000000000000000000081565b6100e77f000000000000000000000000000000000000000000000000000000000000000081565b6001546100e7906001600160a01b031681565b61014061022636600461130d565b6102e2565b61024d6102393660046112d5565b6000546001600160a01b0391821691161490565b60405190151581526020016100fb565b610117610418565b6101176102733660046112d5565b61047c565b6000546001600160a01b031633146102d25760405162461bcd60e51b815260206004820152601860248201527733b7bb32b93730b1363297b7b7363c96b3b7bb32b93737b960411b60448201526064015b60405180910390fd5b6102dd8383836104dd565b505050565b6000336001600160a01b037f0000000000000000000000000000000000000000000000000000000000000000161461035c5760405162461bcd60e51b815260206004820152601a60248201527f537761707065723a206e6f7420747261646520666163746f727900000000000060448201526064016102c9565b610369868686868661067f565b61039e6001600160a01b0386167f000000000000000000000000000000000000000000000000000000000000000030866107c8565b6103ab8686868686610839565b604080516001600160a01b0389811682528881166020830152871681830152606081018690526080810185905260a0810183905290519192507fc9163c3bdf7263acf1bb3d24072cc7da025f7181c31e2edc7e1673edf5e0ca32919081900360c00190a195945050505050565b6001546001600160a01b031633146104725760405162461bcd60e51b815260206004820181905260248201527f676f7665726e61626c652f6f6e6c792d70656e64696e672d676f7665726e6f7260448201526064016102c9565b61047a6109ee565b565b6000546001600160a01b031633146104d15760405162461bcd60e51b815260206004820152601860248201527733b7bb32b93730b1363297b7b7363c96b3b7bb32b93737b960411b60448201526064016102c9565b6104da81610a3e565b50565b6001600160a01b03831661054b5760405162461bcd60e51b815260206004820152602f60248201527f636f6c6c65637461626c652d647573742f63616e742d73656e642d647573742d60448201526e746f2d7a65726f2d6164647265737360881b60648201526084016102c9565b610556600283610b06565b156105ba5760405162461bcd60e51b815260206004820152602e60248201527f636f6c6c65637461626c652d647573742f746f6b656e2d69732d706172742d6f60448201526d198b5d1a194b5c1c9bdd1bd8dbdb60921b60648201526084016102c9565b6001600160a01b03821673eeeeeeeeeeeeeeeeeeeeeeeeeeeeeeeeeeeeeeee141561061b576040516001600160a01b0384169082156108fc029083906000818181858888f19350505050158015610615573d6000803e3d6000fd5b5061062f565b61062f6001600160a01b0383168483610b2a565b604080516001600160a01b038086168252841660208201529081018290527f1e34c1aee8e83c2dcc14c21bb4bfeea7f46c0c998cb797ac7cc4d7a18f5c656b9060600160405180910390a1505050565b6001600160a01b0385166106cd5760405162461bcd60e51b8152602060048201526015602482015274537761707065723a207a65726f206164647265737360581b60448201526064016102c9565b6001600160a01b038416158015906106ed57506001600160a01b03831615155b6107315760405162461bcd60e51b8152602060048201526015602482015274537761707065723a207a65726f206164647265737360581b60448201526064016102c9565b600082116107785760405162461bcd60e51b815260206004820152601460248201527314ddd85c1c195c8e881e995c9bc8185b5bdd5b9d60621b60448201526064016102c9565b600081116107c15760405162461bcd60e51b8152602060048201526016602482015275537761707065723a207a65726f20736c69707061676560501b60448201526064016102c9565b5050505050565b6040516001600160a01b03808516602483015283166044820152606481018290526108339085906323b872dd60e01b906084015b60408051601f198184030181529190526020810180516001600160e01b03166001600160e01b031990931692909217909152610b5a565b50505050565b6000806108468686610c2c565b90506000610855858584610f12565b90506108be7f000000000000000000000000000000000000000000000000000000000000000060008460008151811061089e57634e487b7160e01b600052603260045260246000fd5b60200260200101516001600160a01b03166110379092919063ffffffff16565b6109047f0000000000000000000000000000000000000000000000000000000000000000868460008151811061089e57634e487b7160e01b600052603260045260246000fd5b6001600160a01b037f0000000000000000000000000000000000000000000000000000000000000000166338ed17398683858c61094342610708611586565b6040518663ffffffff1660e01b815260040161096395949392919061154a565b600060405180830381600087803b15801561097d57600080fd5b505af1158015610991573d6000803e3d6000fd5b505050506040513d6000823e601f3d908101601f191682016040526109b991908101906113a7565b6000815181106109d957634e487b7160e01b600052603260045260246000fd5b60200260200101519250505095945050505050565b60018054600080546001600160a01b03199081166001600160a01b0384161782559091169091556040517f7880f0fcc848e1f26e461654b100a69f8d0641e29aa29f6596c6afadbb36b5ea9190a1565b6001600160a01b038116610ab25760405162461bcd60e51b815260206004820152603560248201527f676f7665726e61626c652f70656e64696e672d676f7665726e6f722d73686f756044820152746c642d6e6f742d62652d7a65726f2d61646472657360581b60648201526084016102c9565b600180546001600160a01b0319166001600160a01b0383169081179091556040519081527f56bddfa0cee9697cebddf9acd7f23dc6583663b05e007b877056d05017994def9060200160405180910390a150565b6001600160a01b038116600090815260018301602052604090205415155b92915050565b6040516001600160a01b0383166024820152604481018290526102dd90849063a9059cbb60e01b906064016107fc565b6000610baf826040518060400160405280602081526020017f5361666545524332303a206c6f772d6c6576656c2063616c6c206661696c6564815250856001600160a01b031661115b9092919063ffffffff16565b8051909150156102dd5780806020019051810190610bcd9190611467565b6102dd5760405162461bcd60e51b815260206004820152602a60248201527f5361666545524332303a204552433230206f7065726174696f6e20646964206e6044820152691bdd081cdd58d8d9595960b21b60648201526084016102c9565b60607f00000000000000000000000000000000000000000000000000000000000000006001600160a01b0316836001600160a01b03161480610c9f57507f00000000000000000000000000000000000000000000000000000000000000006001600160a01b0316826001600160a01b0316145b80610d57575060405163e6a4390560e01b81526001600160a01b03848116600483015283811660248301526000917f00000000000000000000000000000000000000000000000000000000000000009091169063e6a439059060440160206040518083038186803b158015610d1357600080fd5b505afa158015610d27573d6000803e3d6000fd5b505050506040513d601f19601f82011682018060405250810190610d4b91906112f1565b6001600160a01b031614155b15610e055760408051600280825260608201835290916020830190803683370190505090508281600081518110610d9e57634e487b7160e01b600052603260045260246000fd5b60200260200101906001600160a01b031690816001600160a01b0316815250508181600181518110610de057634e487b7160e01b600052603260045260246000fd5b60200260200101906001600160a01b031690816001600160a01b031681525050610b24565b6040805160038082526080820190925290602082016060803683370190505090508281600081518110610e4857634e487b7160e01b600052603260045260246000fd5b60200260200101906001600160a01b031690816001600160a01b0316815250507f000000000000000000000000000000000000000000000000000000000000000081600181518110610eaa57634e487b7160e01b600052603260045260246000fd5b60200260200101906001600160a01b031690816001600160a01b0316815250508181600281518110610eec57634e487b7160e01b600052603260045260246000fd5b60200260200101906001600160a01b031690816001600160a01b03168152505092915050565b6000807f00000000000000000000000000000000000000000000000000000000000000006001600160a01b031663d06ca61f86856040518363ffffffff1660e01b8152600401610f63929190611531565b60006040518083038186803b158015610f7b57600080fd5b505afa158015610f8f573d6000803e3d6000fd5b505050506040513d6000823e601f3d908101601f19168201604052610fb791908101906113a7565b600081518110610fd757634e487b7160e01b600052603260045260246000fd5b6020026020010151905060647f0000000000000000000000000000000000000000000000000000000000000000858361101091906115be565b61101a919061159e565b611024919061159e565b61102e90826115dd565b95945050505050565b8015806110c05750604051636eb1769f60e11b81523060048201526001600160a01b03838116602483015284169063dd62ed3e9060440160206040518083038186803b15801561108657600080fd5b505afa15801561109a573d6000803e3d6000fd5b505050506040513d601f19601f820116820180604052508101906110be9190611487565b155b61112b5760405162461bcd60e51b815260206004820152603660248201527f5361666545524332303a20617070726f76652066726f6d206e6f6e2d7a65726f60448201527520746f206e6f6e2d7a65726f20616c6c6f77616e636560501b60648201526084016102c9565b6040516001600160a01b0383166024820152604481018290526102dd90849063095ea7b360e01b906064016107fc565b606061116a8484600085611174565b90505b9392505050565b6060824710156111d55760405162461bcd60e51b815260206004820152602660248201527f416464726573733a20696e73756666696369656e742062616c616e636520666f6044820152651c8818d85b1b60d21b60648201526084016102c9565b843b6112235760405162461bcd60e51b815260206004820152601d60248201527f416464726573733a2063616c6c20746f206e6f6e2d636f6e747261637400000060448201526064016102c9565b600080866001600160a01b0316858760405161123f91906114e2565b60006040518083038185875af1925050503d806000811461127c576040519150601f19603f3d011682016040523d82523d6000602084013e611281565b606091505b509150915061129182828661129c565b979650505050505050565b606083156112ab57508161116d565b8251156112bb5782518084602001fd5b8160405162461bcd60e51b81526004016102c991906114fe565b6000602082840312156112e6578081fd5b813561116d8161164c565b600060208284031215611302578081fd5b815161116d8161164c565b600080600080600060a08688031215611324578081fd5b853561132f8161164c565b9450602086013561133f8161164c565b9350604086013561134f8161164c565b94979396509394606081013594506080013592915050565b60008060006060848603121561137b578283fd5b83356113868161164c565b925060208401356113968161164c565b929592945050506040919091013590565b600060208083850312156113b9578182fd5b825167ffffffffffffffff808211156113d0578384fd5b818501915085601f8301126113e3578384fd5b8151818111156113f5576113f5611636565b8060051b604051601f19603f8301168101818110858211171561141a5761141a611636565b604052828152858101935084860182860187018a1015611438578788fd5b8795505b8386101561145a57805185526001959095019493860193860161143c565b5098975050505050505050565b600060208284031215611478578081fd5b8151801515811461116d578182fd5b600060208284031215611498578081fd5b5051919050565b6000815180845260208085019450808401835b838110156114d75781516001600160a01b0316875295820195908201906001016114b2565b509495945050505050565b600082516114f48184602087016115f4565b9190910192915050565b602081526000825180602084015261151d8160408501602087016115f4565b601f01601f19169190910160400192915050565b82815260406020820152600061116a604083018461149f565b85815284602082015260a06040820152600061156960a083018661149f565b6001600160a01b0394909416606083015250608001529392505050565b6000821982111561159957611599611620565b500190565b6000826115b957634e487b7160e01b81526012600452602481fd5b500490565b60008160001904831182151516156115d8576115d8611620565b500290565b6000828210156115ef576115ef611620565b500390565b60005b8381101561160f5781810151838201526020016115f7565b838111156108335750506000910152565b634e487b7160e01b600052601160045260246000fd5b634e487b7160e01b600052604160045260246000fd5b6001600160a01b03811681146104da57600080fdfea26469706673582212207ea83aa713613b7cc27f84aaa2b99392b8435b8ad57ded932060c0232fcbcf7764736f6c63430008040033",
  "devdoc": {
    "kind": "dev",
    "methods": {},
    "version": 1
  },
  "userdoc": {
    "kind": "user",
    "methods": {},
    "version": 1
  },
  "storageLayout": {
    "storage": [
      {
        "astId": 132,
        "contract": "contracts/swappers/UniswapV2Swapper.sol:UniswapV2Swapper",
        "label": "governor",
        "offset": 0,
        "slot": "0",
        "type": "t_address"
      },
      {
        "astId": 135,
        "contract": "contracts/swappers/UniswapV2Swapper.sol:UniswapV2Swapper",
        "label": "pendingGovernor",
        "offset": 0,
        "slot": "1",
        "type": "t_address"
      },
      {
        "astId": 21,
        "contract": "contracts/swappers/UniswapV2Swapper.sol:UniswapV2Swapper",
        "label": "protocolTokens",
        "offset": 0,
        "slot": "2",
        "type": "t_struct(AddressSet)2632_storage"
      }
    ],
    "types": {
      "t_address": {
        "encoding": "inplace",
        "label": "address",
        "numberOfBytes": "20"
      },
      "t_array(t_bytes32)dyn_storage": {
        "base": "t_bytes32",
        "encoding": "dynamic_array",
        "label": "bytes32[]",
        "numberOfBytes": "32"
      },
      "t_bytes32": {
        "encoding": "inplace",
        "label": "bytes32",
        "numberOfBytes": "32"
      },
      "t_mapping(t_bytes32,t_uint256)": {
        "encoding": "mapping",
        "key": "t_bytes32",
        "label": "mapping(bytes32 => uint256)",
        "numberOfBytes": "32",
        "value": "t_uint256"
      },
      "t_struct(AddressSet)2632_storage": {
        "encoding": "inplace",
        "label": "struct EnumerableSet.AddressSet",
        "members": [
          {
            "astId": 2631,
            "contract": "contracts/swappers/UniswapV2Swapper.sol:UniswapV2Swapper",
            "label": "_inner",
            "offset": 0,
            "slot": "0",
            "type": "t_struct(Set)2361_storage"
          }
        ],
        "numberOfBytes": "64"
      },
      "t_struct(Set)2361_storage": {
        "encoding": "inplace",
        "label": "struct EnumerableSet.Set",
        "members": [
          {
            "astId": 2356,
            "contract": "contracts/swappers/UniswapV2Swapper.sol:UniswapV2Swapper",
            "label": "_values",
            "offset": 0,
            "slot": "0",
            "type": "t_array(t_bytes32)dyn_storage"
          },
          {
            "astId": 2360,
            "contract": "contracts/swappers/UniswapV2Swapper.sol:UniswapV2Swapper",
            "label": "_indexes",
            "offset": 0,
            "slot": "1",
            "type": "t_mapping(t_bytes32,t_uint256)"
          }
        ],
        "numberOfBytes": "64"
      },
      "t_uint256": {
        "encoding": "inplace",
        "label": "uint256",
        "numberOfBytes": "32"
      }
    }
  }
}