{
  "address": "0x382ec4342775607ad64949bC26402b5F8CD651fe",
  "abi": [
    {
      "inputs": [
        {
          "internalType": "address",
          "name": "_governance",
          "type": "address"
        }
      ],
      "stateMutability": "nonpayable",
      "type": "constructor"
    },
    {
      "anonymous": false,
      "inputs": [
        {
          "indexed": false,
          "internalType": "address",
          "name": "_to",
          "type": "address"
        },
        {
          "indexed": false,
          "internalType": "address",
          "name": "token",
          "type": "address"
        },
        {
          "indexed": false,
          "internalType": "uint256",
          "name": "amount",
          "type": "uint256"
        }
      ],
      "name": "DustSent",
      "type": "event"
    },
    {
      "anonymous": false,
      "inputs": [],
      "name": "GovernorAccepted",
      "type": "event"
    },
    {
      "anonymous": false,
      "inputs": [
        {
          "indexed": false,
          "internalType": "address",
          "name": "pendingGovernor",
          "type": "address"
        }
      ],
      "name": "PendingGovernorSet",
      "type": "event"
    },
    {
      "anonymous": false,
      "inputs": [
        {
          "indexed": true,
          "internalType": "address",
          "name": "_swapper",
          "type": "address"
        },
        {
          "indexed": false,
          "internalType": "string",
          "name": "_name",
          "type": "string"
        }
      ],
      "name": "SwapperAdded",
      "type": "event"
    },
    {
      "anonymous": false,
      "inputs": [
        {
          "indexed": true,
          "internalType": "address",
          "name": "_swapper",
          "type": "address"
        }
      ],
      "name": "SwapperDeprecated",
      "type": "event"
    },
    {
      "inputs": [],
      "name": "ETH_ADDRESS",
      "outputs": [
        {
          "internalType": "address",
          "name": "",
          "type": "address"
        }
      ],
      "stateMutability": "view",
      "type": "function"
    },
    {
      "inputs": [],
      "name": "acceptGovernor",
      "outputs": [],
      "stateMutability": "nonpayable",
      "type": "function"
    },
    {
      "inputs": [],
      "name": "activeSwappers",
      "outputs": [
        {
          "internalType": "address[]",
          "name": "_activeSwappers",
          "type": "address[]"
        }
      ],
      "stateMutability": "view",
      "type": "function"
    },
    {
      "inputs": [
        {
          "internalType": "string",
          "name": "_name",
          "type": "string"
        },
        {
          "internalType": "address",
          "name": "_swapper",
          "type": "address"
        }
      ],
      "name": "addSwapper",
      "outputs": [],
      "stateMutability": "nonpayable",
      "type": "function"
    },
    {
      "inputs": [
        {
          "internalType": "address",
          "name": "_swapper",
          "type": "address"
        }
      ],
      "name": "deprecateSwapper",
      "outputs": [],
      "stateMutability": "nonpayable",
      "type": "function"
    },
    {
      "inputs": [
        {
          "internalType": "address",
          "name": "",
          "type": "address"
        }
      ],
      "name": "deprecatedByAddress",
      "outputs": [
        {
          "internalType": "bool",
          "name": "",
          "type": "bool"
        }
      ],
      "stateMutability": "view",
      "type": "function"
    },
    {
      "inputs": [],
      "name": "deprecatedSwappers",
      "outputs": [
        {
          "internalType": "address[]",
          "name": "_deprecatedSwappers",
          "type": "address[]"
        }
      ],
      "stateMutability": "view",
      "type": "function"
    },
    {
      "inputs": [],
      "name": "governor",
      "outputs": [
        {
          "internalType": "address",
          "name": "",
          "type": "address"
        }
      ],
      "stateMutability": "view",
      "type": "function"
    },
    {
      "inputs": [
        {
          "internalType": "address",
          "name": "",
          "type": "address"
        }
      ],
      "name": "initializationByAddress",
      "outputs": [
        {
          "internalType": "uint256",
          "name": "",
          "type": "uint256"
        }
      ],
      "stateMutability": "view",
      "type": "function"
    },
    {
      "inputs": [
        {
          "internalType": "address",
          "name": "_account",
          "type": "address"
        }
      ],
      "name": "isGovernor",
      "outputs": [
        {
          "internalType": "bool",
          "name": "_isGovernor",
          "type": "bool"
        }
      ],
      "stateMutability": "view",
      "type": "function"
    },
    {
      "inputs": [
        {
          "internalType": "address",
          "name": "_swapper",
          "type": "address"
        }
      ],
      "name": "isSwapper",
      "outputs": [
        {
          "internalType": "bool",
          "name": "",
          "type": "bool"
        }
      ],
      "stateMutability": "view",
      "type": "function"
    },
    {
      "inputs": [
        {
          "internalType": "string",
          "name": "_swapper",
          "type": "string"
        }
      ],
      "name": "isSwapper",
      "outputs": [
        {
          "internalType": "bool",
          "name": "_isSwapper",
          "type": "bool"
        },
        {
          "internalType": "address",
          "name": "_swapperAddress",
          "type": "address"
        },
        {
          "internalType": "uint256",
          "name": "_initialization",
          "type": "uint256"
        }
      ],
      "stateMutability": "view",
      "type": "function"
    },
    {
      "inputs": [
        {
          "internalType": "address",
          "name": "",
          "type": "address"
        }
      ],
      "name": "nameByAddress",
      "outputs": [
        {
          "internalType": "string",
          "name": "",
          "type": "string"
        }
      ],
      "stateMutability": "view",
      "type": "function"
    },
    {
      "inputs": [],
      "name": "pendingGovernor",
      "outputs": [
        {
          "internalType": "address",
          "name": "",
          "type": "address"
        }
      ],
      "stateMutability": "view",
      "type": "function"
    },
    {
      "inputs": [
        {
          "internalType": "address",
          "name": "_to",
          "type": "address"
        },
        {
          "internalType": "address",
          "name": "_token",
          "type": "address"
        },
        {
          "internalType": "uint256",
          "name": "_amount",
          "type": "uint256"
        }
      ],
      "name": "sendDust",
      "outputs": [],
      "stateMutability": "nonpayable",
      "type": "function"
    },
    {
      "inputs": [
        {
          "internalType": "address",
          "name": "_pendingGovernor",
          "type": "address"
        }
      ],
      "name": "setPendingGovernor",
      "outputs": [],
      "stateMutability": "nonpayable",
      "type": "function"
    },
    {
      "inputs": [
        {
          "internalType": "string",
          "name": "",
          "type": "string"
        }
      ],
      "name": "swapperByName",
      "outputs": [
        {
          "internalType": "address",
          "name": "",
          "type": "address"
        }
      ],
      "stateMutability": "view",
      "type": "function"
    },
    {
      "inputs": [],
      "name": "swapperNames",
      "outputs": [
        {
          "internalType": "string[]",
          "name": "_swappersNames",
          "type": "string[]"
        }
      ],
      "stateMutability": "view",
      "type": "function"
    },
    {
      "inputs": [],
      "name": "swappers",
      "outputs": [
        {
          "internalType": "address[]",
          "name": "_swappersAddresses",
          "type": "address[]"
        }
      ],
      "stateMutability": "view",
      "type": "function"
    }
  ],
  "transactionHash": "0xe3ccc6f3eda14de272bf942d32799527969dd6b224f07dfe81bd714d7c9e0374",
  "args": [
    "0xB82193725471dC7bfaAB1a3AB93c7b42963F3265"
  ],
  "solcInputHash": "4b4ac38e41d3a6aafe00d06d8747a81d",
  "bytecode": "0x608060405234801561001057600080fd5b5060405161186a38038061186a83398101604081905261002f916100c7565b806001600160a01b0381166100a15760405162461bcd60e51b815260206004820152602e60248201527f676f7665726e61626c652f676f7665726e6f722d73686f756c642d6e6f742d6260448201526d652d7a65726f2d6164647265737360901b606482015260840160405180910390fd5b600280546001600160a01b0319166001600160a01b0392909216919091179055506100f5565b6000602082840312156100d8578081fd5b81516001600160a01b03811681146100ee578182fd5b9392505050565b611766806101046000396000f3fe608060405234801561001057600080fd5b50600436106101215760003560e01c8063a38f3042116100ad578063cbf8e6c411610071578063cbf8e6c4146102e2578063e3056a34146102ea578063e43581b8146102fd578063e58bb6391461031f578063f235757f1461032757600080fd5b8063a38f30421461022e578063a734f06e1461025c578063b64230ba14610277578063bb2983d81461028a578063bbce1bca146102aa57600080fd5b8063519c581e116100f4578063519c581e146101b857806353fc4722146101cd578063567e0b77146101d55780636df00070146101e857806382ce8f911461021b57600080fd5b806305f82669146101265780630c340a24146101445780632db8c1291461016f578063423f2f9c14610184575b600080fd5b61012e61033a565b60405161013b91906115bb565b60405180910390f35b600254610157906001600160a01b031681565b6040516001600160a01b03909116815260200161013b565b61018261017d36600461144c565b6104b0565b005b6101576101923660046114a7565b80516020818301810180516005825292820191909301209152546001600160a01b031681565b6101c06104f3565b60405161013b919061156e565b6101c06105fe565b6101826101e3366004611432565b610705565b61020b6101f6366004611432565b60076020526000908152604090205460ff1681565b604051901515815260200161013b565b6101826102293660046114da565b61073b565b61024e61023c366004611432565b60066020526000908152604090205481565b60405190815260200161013b565b61015773eeeeeeeeeeeeeeeeeeeeeeeeeeeeeeeeeeeeeeee81565b61020b610285366004611432565b610773565b61029d610298366004611432565b610786565b60405161013b919061161c565b6102bd6102b83660046114a7565b610820565b6040805193151584526001600160a01b0390921660208401529082015260600161013b565b6101c061086b565b600354610157906001600160a01b031681565b61020b61030b366004611432565b6002546001600160a01b0391821691161490565b610182610932565b610182610335366004611432565b610996565b606061034660086109c9565b67ffffffffffffffff81111561036c57634e487b7160e01b600052604160045260246000fd5b60405190808252806020026020018201604052801561039f57816020015b606081526020019060019003908161038a5790505b50905060005b6103af60086109c9565b8110156104ac57600460006103c56008846109d3565b6001600160a01b03166001600160a01b0316815260200190815260200160002080546103f0906116ae565b80601f016020809104026020016040519081016040528092919081815260200182805461041c906116ae565b80156104695780601f1061043e57610100808354040283529160200191610469565b820191906000526020600020905b81548152906001019060200180831161044c57829003601f168201915b505050505082828151811061048e57634e487b7160e01b600052603260045260246000fd5b602002602001018190525080806104a4906116e9565b9150506103a5565b5090565b6002546001600160a01b031633146104e35760405162461bcd60e51b81526004016104da9061162f565b60405180910390fd5b6104ee8383836109e6565b505050565b60606104ff60086109c9565b67ffffffffffffffff81111561052557634e487b7160e01b600052604160045260246000fd5b60405190808252806020026020018201604052801561054e578160200160208202803683370190505b5090506000805b61055f60086109c9565b8110156105f957600760006105756008846109d3565b6001600160a01b0316815260208101919091526040016000205460ff166105e7576105a16008826109d3565b8383815181106105c157634e487b7160e01b600052603260045260246000fd5b6001600160a01b03909216602092830291909101909101526105e4600183611666565b91505b806105f1816116e9565b915050610555565b505090565b606061060a60086109c9565b67ffffffffffffffff81111561063057634e487b7160e01b600052604160045260246000fd5b604051908082528060200260200182016040528015610659578160200160208202803683370190505b5090506000805b61066a60086109c9565b8110156105f957600760006106806008846109d3565b6001600160a01b0316815260208101919091526040016000205460ff16156106f3576106ad6008826109d3565b8383815181106106cd57634e487b7160e01b600052603260045260246000fd5b6001600160a01b03909216602092830291909101909101526106f0600183611666565b91505b806106fd816116e9565b915050610660565b6002546001600160a01b0316331461072f5760405162461bcd60e51b81526004016104da9061162f565b61073881610b88565b50565b6002546001600160a01b031633146107655760405162461bcd60e51b81526004016104da9061162f565b61076f8282610c36565b5050565b6000610780600883610e8d565b92915050565b6004602052600090815260409020805461079f906116ae565b80601f01602080910402602001604051908101604052809291908181526020018280546107cb906116ae565b80156108185780601f106107ed57610100808354040283529160200191610818565b820191906000526020600020905b8154815290600101906020018083116107fb57829003601f168201915b505050505081565b60008060006005846040516108359190611552565b9081526040805160209281900383019020546001600160a01b031660008181526006909352912054811515969195509350915050565b606061087760086109c9565b67ffffffffffffffff81111561089d57634e487b7160e01b600052604160045260246000fd5b6040519080825280602002602001820160405280156108c6578160200160208202803683370190505b50905060005b6108d660086109c9565b8110156104ac576108e86008826109d3565b82828151811061090857634e487b7160e01b600052603260045260246000fd5b6001600160a01b03909216602092830291909101909101528061092a816116e9565b9150506108cc565b6003546001600160a01b0316331461098c5760405162461bcd60e51b815260206004820181905260248201527f676f7665726e61626c652f6f6e6c792d70656e64696e672d676f7665726e6f7260448201526064016104da565b610994610eaf565b565b6002546001600160a01b031633146109c05760405162461bcd60e51b81526004016104da9061162f565b61073881610eff565b6000610780825490565b60006109df8383610fc7565b9392505050565b6001600160a01b038316610a545760405162461bcd60e51b815260206004820152602f60248201527f636f6c6c65637461626c652d647573742f63616e742d73656e642d647573742d60448201526e746f2d7a65726f2d6164647265737360881b60648201526084016104da565b610a5f600083610e8d565b15610ac35760405162461bcd60e51b815260206004820152602e60248201527f636f6c6c65637461626c652d647573742f746f6b656e2d69732d706172742d6f60448201526d198b5d1a194b5c1c9bdd1bd8dbdb60921b60648201526084016104da565b6001600160a01b03821673eeeeeeeeeeeeeeeeeeeeeeeeeeeeeeeeeeeeeeee1415610b24576040516001600160a01b0384169082156108fc029083906000818181858888f19350505050158015610b1e573d6000803e3d6000fd5b50610b38565b610b386001600160a01b0383168483610fff565b604080516001600160a01b038086168252841660208201529081018290527f1e34c1aee8e83c2dcc14c21bb4bfeea7f46c0c998cb797ac7cc4d7a18f5c656b9060600160405180910390a1505050565b610b93600882610e8d565b610bea5760405162461bcd60e51b815260206004820152602260248201527f5377617070657252656769737472793a2073776170706572206e6f7420616464604482015261195960f21b60648201526084016104da565b6001600160a01b038116600081815260076020526040808220805460ff19166001179055517f7ef5c0fcf184cea20ed24dae01c4089fec870a046931503fa41c10f85b0d5db99190a250565b6000825111610c875760405162461bcd60e51b815260206004820152601b60248201527f5377617070657252656769737472793a20656d707479206e616d65000000000060448201526064016104da565b6001600160a01b038116610cdd5760405162461bcd60e51b815260206004820152601d60248201527f5377617070657252656769737472793a207a65726f206164647265737300000060448201526064016104da565b610ce8600882610e8d565b15610d445760405162461bcd60e51b815260206004820152602660248201527f5377617070657252656769737472793a207377617070657220616c726561647960448201526508185919195960d21b60648201526084016104da565b60006001600160a01b0316600583604051610d5f9190611552565b908152604051908190036020019020546001600160a01b031614610dc55760405162461bcd60e51b815260206004820152601b60248201527f5377617070657252656769737472793a206e616d652074616b656e000000000060448201526064016104da565b6001600160a01b03811660009081526004602090815260409091208351610dee928501906112ff565b5080600583604051610e009190611552565b908152604080516020928190038301902080546001600160a01b0319166001600160a01b039485161790559183166000908152600690915220429055610e47600882611051565b50806001600160a01b03167f3b8580d260a5bbf7cfcca55e7df5ab5e9d41c9b4edcb3cbee05861fe8632ca6683604051610e81919061161c565b60405180910390a25050565b6001600160a01b038116600090815260018301602052604081205415156109df565b60038054600280546001600160a01b03199081166001600160a01b038416179091551690556040517f7880f0fcc848e1f26e461654b100a69f8d0641e29aa29f6596c6afadbb36b5ea90600090a1565b6001600160a01b038116610f735760405162461bcd60e51b815260206004820152603560248201527f676f7665726e61626c652f70656e64696e672d676f7665726e6f722d73686f756044820152746c642d6e6f742d62652d7a65726f2d61646472657360581b60648201526084016104da565b600380546001600160a01b0319166001600160a01b0383169081179091556040519081527f56bddfa0cee9697cebddf9acd7f23dc6583663b05e007b877056d05017994def9060200160405180910390a150565b6000826000018281548110610fec57634e487b7160e01b600052603260045260246000fd5b9060005260206000200154905092915050565b604080516001600160a01b038416602482015260448082018490528251808303909101815260649091019091526020810180516001600160e01b031663a9059cbb60e01b1790526104ee908490611066565b60006109df836001600160a01b038416611138565b60006110bb826040518060400160405280602081526020017f5361666545524332303a206c6f772d6c6576656c2063616c6c206661696c6564815250856001600160a01b03166111879092919063ffffffff16565b8051909150156104ee57808060200190518101906110d99190611487565b6104ee5760405162461bcd60e51b815260206004820152602a60248201527f5361666545524332303a204552433230206f7065726174696f6e20646964206e6044820152691bdd081cdd58d8d9595960b21b60648201526084016104da565b600081815260018301602052604081205461117f57508154600181810184556000848152602080822090930184905584548482528286019093526040902091909155610780565b506000610780565b6060611196848460008561119e565b949350505050565b6060824710156111ff5760405162461bcd60e51b815260206004820152602660248201527f416464726573733a20696e73756666696369656e742062616c616e636520666f6044820152651c8818d85b1b60d21b60648201526084016104da565b843b61124d5760405162461bcd60e51b815260206004820152601d60248201527f416464726573733a2063616c6c20746f206e6f6e2d636f6e747261637400000060448201526064016104da565b600080866001600160a01b031685876040516112699190611552565b60006040518083038185875af1925050503d80600081146112a6576040519150601f19603f3d011682016040523d82523d6000602084013e6112ab565b606091505b50915091506112bb8282866112c6565b979650505050505050565b606083156112d55750816109df565b8251156112e55782518084602001fd5b8160405162461bcd60e51b81526004016104da919061161c565b82805461130b906116ae565b90600052602060002090601f01602090048101928261132d5760008555611373565b82601f1061134657805160ff1916838001178555611373565b82800160010185558215611373579182015b82811115611373578251825591602001919060010190611358565b506104ac9291505b808211156104ac576000815560010161137b565b80356001600160a01b03811681146113a657600080fd5b919050565b600082601f8301126113bb578081fd5b813567ffffffffffffffff808211156113d6576113d661171a565b604051601f8301601f19908116603f011681019082821181831017156113fe576113fe61171a565b81604052838152866020858801011115611416578485fd5b8360208701602083013792830160200193909352509392505050565b600060208284031215611443578081fd5b6109df8261138f565b600080600060608486031215611460578182fd5b6114698461138f565b92506114776020850161138f565b9150604084013590509250925092565b600060208284031215611498578081fd5b815180151581146109df578182fd5b6000602082840312156114b8578081fd5b813567ffffffffffffffff8111156114ce578182fd5b611196848285016113ab565b600080604083850312156114ec578182fd5b823567ffffffffffffffff811115611502578283fd5b61150e858286016113ab565b92505061151d6020840161138f565b90509250929050565b6000815180845261153e81602086016020860161167e565b601f01601f19169290920160200192915050565b6000825161156481846020870161167e565b9190910192915050565b6020808252825182820181905260009190848201906040850190845b818110156115af5783516001600160a01b03168352928401929184019160010161158a565b50909695505050505050565b6000602080830181845280855180835260408601915060408160051b8701019250838701855b8281101561160f57603f198886030184526115fd858351611526565b945092850192908501906001016115e1565b5092979650505050505050565b6020815260006109df6020830184611526565b60208082526018908201527f676f7665726e61626c652f6f6e6c792d676f7665726e6f720000000000000000604082015260600190565b6000821982111561167957611679611704565b500190565b60005b83811015611699578181015183820152602001611681565b838111156116a8576000848401525b50505050565b600181811c908216806116c257607f821691505b602082108114156116e357634e487b7160e01b600052602260045260246000fd5b50919050565b60006000198214156116fd576116fd611704565b5060010190565b634e487b7160e01b600052601160045260246000fd5b634e487b7160e01b600052604160045260246000fdfea2646970667358221220e8a42c274fcaa2bacf54c4ff00c0a39d6823e1369ba140d9bd40c4f1cb1548f764736f6c63430008040033",
  "devdoc": {
    "kind": "dev",
    "methods": {},
    "version": 1
  },
  "userdoc": {
    "kind": "user",
    "methods": {},
    "version": 1
  },
  "storageLayout": {
    "storage": [
      {
        "astId": 21,
        "contract": "contracts/SwapperRegistry.sol:SwapperRegistry",
        "label": "protocolTokens",
        "offset": 0,
        "slot": "0",
        "type": "t_struct(AddressSet)2632_storage"
      },
      {
        "astId": 132,
        "contract": "contracts/SwapperRegistry.sol:SwapperRegistry",
        "label": "governor",
        "offset": 0,
        "slot": "2",
        "type": "t_address"
      },
      {
        "astId": 135,
        "contract": "contracts/SwapperRegistry.sol:SwapperRegistry",
        "label": "pendingGovernor",
        "offset": 0,
        "slot": "3",
        "type": "t_address"
      },
      {
        "astId": 4593,
        "contract": "contracts/SwapperRegistry.sol:SwapperRegistry",
        "label": "nameByAddress",
        "offset": 0,
        "slot": "4",
        "type": "t_mapping(t_address,t_string_storage)"
      },
      {
        "astId": 4598,
        "contract": "contracts/SwapperRegistry.sol:SwapperRegistry",
        "label": "swapperByName",
        "offset": 0,
        "slot": "5",
        "type": "t_mapping(t_string_memory_ptr,t_address)"
      },
      {
        "astId": 4603,
        "contract": "contracts/SwapperRegistry.sol:SwapperRegistry",
        "label": "initializationByAddress",
        "offset": 0,
        "slot": "6",
        "type": "t_mapping(t_address,t_uint256)"
      },
      {
        "astId": 4608,
        "contract": "contracts/SwapperRegistry.sol:SwapperRegistry",
        "label": "deprecatedByAddress",
        "offset": 0,
        "slot": "7",
        "type": "t_mapping(t_address,t_bool)"
      },
      {
        "astId": 4611,
        "contract": "contracts/SwapperRegistry.sol:SwapperRegistry",
        "label": "_swappers",
        "offset": 0,
        "slot": "8",
        "type": "t_struct(AddressSet)2632_storage"
      }
    ],
    "types": {
      "t_address": {
        "encoding": "inplace",
        "label": "address",
        "numberOfBytes": "20"
      },
      "t_array(t_bytes32)dyn_storage": {
        "base": "t_bytes32",
        "encoding": "dynamic_array",
        "label": "bytes32[]",
        "numberOfBytes": "32"
      },
      "t_bool": {
        "encoding": "inplace",
        "label": "bool",
        "numberOfBytes": "1"
      },
      "t_bytes32": {
        "encoding": "inplace",
        "label": "bytes32",
        "numberOfBytes": "32"
      },
      "t_mapping(t_address,t_bool)": {
        "encoding": "mapping",
        "key": "t_address",
        "label": "mapping(address => bool)",
        "numberOfBytes": "32",
        "value": "t_bool"
      },
      "t_mapping(t_address,t_string_storage)": {
        "encoding": "mapping",
        "key": "t_address",
        "label": "mapping(address => string)",
        "numberOfBytes": "32",
        "value": "t_string_storage"
      },
      "t_mapping(t_address,t_uint256)": {
        "encoding": "mapping",
        "key": "t_address",
        "label": "mapping(address => uint256)",
        "numberOfBytes": "32",
        "value": "t_uint256"
      },
      "t_mapping(t_bytes32,t_uint256)": {
        "encoding": "mapping",
        "key": "t_bytes32",
        "label": "mapping(bytes32 => uint256)",
        "numberOfBytes": "32",
        "value": "t_uint256"
      },
      "t_mapping(t_string_memory_ptr,t_address)": {
        "encoding": "mapping",
        "key": "t_string_memory_ptr",
        "label": "mapping(string => address)",
        "numberOfBytes": "32",
        "value": "t_address"
      },
      "t_string_memory_ptr": {
        "encoding": "bytes",
        "label": "string",
        "numberOfBytes": "32"
      },
      "t_string_storage": {
        "encoding": "bytes",
        "label": "string",
        "numberOfBytes": "32"
      },
      "t_struct(AddressSet)2632_storage": {
        "encoding": "inplace",
        "label": "struct EnumerableSet.AddressSet",
        "members": [
          {
            "astId": 2631,
            "contract": "contracts/SwapperRegistry.sol:SwapperRegistry",
            "label": "_inner",
            "offset": 0,
            "slot": "0",
            "type": "t_struct(Set)2361_storage"
          }
        ],
        "numberOfBytes": "64"
      },
      "t_struct(Set)2361_storage": {
        "encoding": "inplace",
        "label": "struct EnumerableSet.Set",
        "members": [
          {
            "astId": 2356,
            "contract": "contracts/SwapperRegistry.sol:SwapperRegistry",
            "label": "_values",
            "offset": 0,
            "slot": "0",
            "type": "t_array(t_bytes32)dyn_storage"
          },
          {
            "astId": 2360,
            "contract": "contracts/SwapperRegistry.sol:SwapperRegistry",
            "label": "_indexes",
            "offset": 0,
            "slot": "1",
            "type": "t_mapping(t_bytes32,t_uint256)"
          }
        ],
        "numberOfBytes": "64"
      },
      "t_uint256": {
        "encoding": "inplace",
        "label": "uint256",
        "numberOfBytes": "32"
      }
    }
  }
}