{
  "address": "0xc9EB13d39bd7fF767bE985f5640a43b07104b40d",
  "abi": [
    {
      "inputs": [
        {
          "internalType": "address",
          "name": "_governor",
          "type": "address"
        },
        {
          "internalType": "address",
          "name": "_mechanicsRegistry",
          "type": "address"
        },
        {
          "internalType": "address",
          "name": "_swapperRegistry",
          "type": "address"
        }
      ],
      "stateMutability": "nonpayable",
      "type": "constructor"
    },
    {
      "anonymous": false,
      "inputs": [
        {
          "indexed": false,
          "internalType": "address",
          "name": "_to",
          "type": "address"
        },
        {
          "indexed": false,
          "internalType": "address",
          "name": "token",
          "type": "address"
        },
        {
          "indexed": false,
          "internalType": "uint256",
          "name": "amount",
          "type": "uint256"
        }
      ],
      "name": "DustSent",
      "type": "event"
    },
    {
      "anonymous": false,
      "inputs": [],
      "name": "GovernorAccepted",
      "type": "event"
    },
    {
      "anonymous": false,
      "inputs": [
        {
          "indexed": false,
          "internalType": "address",
          "name": "pendingGovernor",
          "type": "address"
        }
      ],
      "name": "PendingGovernorSet",
      "type": "event"
    },
    {
      "anonymous": false,
      "inputs": [
        {
          "indexed": true,
          "internalType": "bytes32",
          "name": "role",
          "type": "bytes32"
        },
        {
          "indexed": true,
          "internalType": "bytes32",
          "name": "previousAdminRole",
          "type": "bytes32"
        },
        {
          "indexed": true,
          "internalType": "bytes32",
          "name": "newAdminRole",
          "type": "bytes32"
        }
      ],
      "name": "RoleAdminChanged",
      "type": "event"
    },
    {
      "anonymous": false,
      "inputs": [
        {
          "indexed": true,
          "internalType": "bytes32",
          "name": "role",
          "type": "bytes32"
        },
        {
          "indexed": true,
          "internalType": "address",
          "name": "account",
          "type": "address"
        },
        {
          "indexed": true,
          "internalType": "address",
          "name": "sender",
          "type": "address"
        }
      ],
      "name": "RoleGranted",
      "type": "event"
    },
    {
      "anonymous": false,
      "inputs": [
        {
          "indexed": true,
          "internalType": "bytes32",
          "name": "role",
          "type": "bytes32"
        },
        {
          "indexed": true,
          "internalType": "address",
          "name": "account",
          "type": "address"
        },
        {
          "indexed": true,
          "internalType": "address",
          "name": "sender",
          "type": "address"
        }
      ],
      "name": "RoleRevoked",
      "type": "event"
    },
    {
      "anonymous": false,
      "inputs": [
        {
          "indexed": true,
          "internalType": "address",
          "name": "_swapper",
          "type": "address"
        },
        {
          "indexed": false,
          "internalType": "address",
          "name": "_token",
          "type": "address"
        }
      ],
      "name": "SwapperAndTokenEnabled",
      "type": "event"
    },
    {
      "anonymous": false,
      "inputs": [
        {
          "indexed": true,
          "internalType": "address",
          "name": "_strategy",
          "type": "address"
        },
        {
          "indexed": true,
          "internalType": "uint256",
          "name": "_id",
          "type": "uint256"
        }
      ],
      "name": "TradeCanceled",
      "type": "event"
    },
    {
      "anonymous": false,
      "inputs": [
        {
          "indexed": true,
          "internalType": "uint256",
          "name": "_id",
          "type": "uint256"
        },
        {
          "indexed": false,
          "internalType": "address",
          "name": "_strategy",
          "type": "address"
        },
        {
          "indexed": false,
          "internalType": "address",
          "name": "_swapper",
          "type": "address"
        },
        {
          "indexed": false,
          "internalType": "address",
          "name": "_tokenIn",
          "type": "address"
        },
        {
          "indexed": false,
          "internalType": "address",
          "name": "_tokenOut",
          "type": "address"
        },
        {
          "indexed": false,
          "internalType": "uint256",
          "name": "_amountIn",
          "type": "uint256"
        },
        {
          "indexed": false,
          "internalType": "uint256",
          "name": "_maxSlippage",
          "type": "uint256"
        },
        {
          "indexed": false,
          "internalType": "uint256",
          "name": "_deadline",
          "type": "uint256"
        }
      ],
      "name": "TradeCreated",
      "type": "event"
    },
    {
      "anonymous": false,
      "inputs": [
        {
          "indexed": true,
          "internalType": "uint256",
          "name": "_id",
          "type": "uint256"
        },
        {
          "indexed": false,
          "internalType": "uint256",
          "name": "_receivedAmount",
          "type": "uint256"
        }
      ],
      "name": "TradeExecuted",
      "type": "event"
    },
    {
      "anonymous": false,
      "inputs": [
        {
          "indexed": true,
          "internalType": "uint256",
          "name": "_id",
          "type": "uint256"
        }
      ],
      "name": "TradeExpired",
      "type": "event"
    },
    {
      "anonymous": false,
      "inputs": [
        {
          "indexed": true,
          "internalType": "address",
          "name": "_strategy",
          "type": "address"
        },
        {
          "indexed": false,
          "internalType": "uint256[]",
          "name": "_ids",
          "type": "uint256[]"
        }
      ],
      "name": "TradesCanceled",
      "type": "event"
    },
    {
      "anonymous": false,
      "inputs": [
        {
          "indexed": true,
          "internalType": "address",
          "name": "_strategy",
          "type": "address"
        },
        {
          "indexed": false,
          "internalType": "uint256[]",
          "name": "_ids",
          "type": "uint256[]"
        },
        {
          "indexed": false,
          "internalType": "string",
          "name": "_newSwapper",
          "type": "string"
        }
      ],
      "name": "TradesSwapperChanged",
      "type": "event"
    },
    {
      "inputs": [],
      "name": "DEFAULT_ADMIN_ROLE",
      "outputs": [
        {
          "internalType": "bytes32",
          "name": "",
          "type": "bytes32"
        }
      ],
      "stateMutability": "view",
      "type": "function"
    },
    {
      "inputs": [],
      "name": "ETH_ADDRESS",
      "outputs": [
        {
          "internalType": "address",
          "name": "",
          "type": "address"
        }
      ],
      "stateMutability": "view",
      "type": "function"
    },
    {
      "inputs": [],
      "name": "MASTER_ADMIN",
      "outputs": [
        {
          "internalType": "bytes32",
          "name": "",
          "type": "bytes32"
        }
      ],
      "stateMutability": "view",
      "type": "function"
    },
    {
      "inputs": [],
      "name": "STRATEGY",
      "outputs": [
        {
          "internalType": "bytes32",
          "name": "",
          "type": "bytes32"
        }
      ],
      "stateMutability": "view",
      "type": "function"
    },
    {
      "inputs": [],
      "name": "STRATEGY_ADMIN",
      "outputs": [
        {
          "internalType": "bytes32",
          "name": "",
          "type": "bytes32"
        }
      ],
      "stateMutability": "view",
      "type": "function"
    },
    {
      "inputs": [],
      "name": "SWAPPER_REGISTRY",
      "outputs": [
        {
          "internalType": "address",
          "name": "",
          "type": "address"
        }
      ],
      "stateMutability": "view",
      "type": "function"
    },
    {
      "inputs": [],
      "name": "acceptGovernor",
      "outputs": [],
      "stateMutability": "nonpayable",
      "type": "function"
    },
    {
      "inputs": [
        {
          "internalType": "address",
          "name": "_swapper",
          "type": "address"
        }
      ],
      "name": "approvedTokensBySwappers",
      "outputs": [
        {
          "internalType": "address[]",
          "name": "_tokens",
          "type": "address[]"
        }
      ],
      "stateMutability": "view",
      "type": "function"
    },
    {
      "inputs": [],
      "name": "cancelAllPending",
      "outputs": [
        {
          "internalType": "uint256[]",
          "name": "_canceledTradesIds",
          "type": "uint256[]"
        }
      ],
      "stateMutability": "nonpayable",
      "type": "function"
    },
    {
      "inputs": [
        {
          "internalType": "uint256",
          "name": "_id",
          "type": "uint256"
        }
      ],
      "name": "cancelPending",
      "outputs": [],
      "stateMutability": "nonpayable",
      "type": "function"
    },
    {
      "inputs": [
        {
          "internalType": "string",
          "name": "_swapper",
          "type": "string"
        }
      ],
      "name": "changePendingTradesSwapper",
      "outputs": [
        {
          "internalType": "uint256[]",
          "name": "_changedSwapperIds",
          "type": "uint256[]"
        }
      ],
      "stateMutability": "nonpayable",
      "type": "function"
    },
    {
      "inputs": [
        {
          "internalType": "string",
          "name": "_swapper",
          "type": "string"
        },
        {
          "internalType": "address",
          "name": "_tokenIn",
          "type": "address"
        },
        {
          "internalType": "address",
          "name": "_tokenOut",
          "type": "address"
        },
        {
          "internalType": "uint256",
          "name": "_amountIn",
          "type": "uint256"
        },
        {
          "internalType": "uint256",
          "name": "_maxSlippage",
          "type": "uint256"
        },
        {
          "internalType": "uint256",
          "name": "_deadline",
          "type": "uint256"
        }
      ],
      "name": "create",
      "outputs": [
        {
          "internalType": "uint256",
          "name": "_id",
          "type": "uint256"
        }
      ],
      "stateMutability": "nonpayable",
      "type": "function"
    },
    {
      "inputs": [
        {
          "internalType": "uint256",
          "name": "_id",
          "type": "uint256"
        }
      ],
      "name": "execute",
      "outputs": [
        {
          "internalType": "uint256",
          "name": "_receivedAmount",
          "type": "uint256"
        }
      ],
      "stateMutability": "nonpayable",
      "type": "function"
    },
    {
      "inputs": [
        {
          "internalType": "uint256",
          "name": "_id",
          "type": "uint256"
        }
      ],
      "name": "expire",
      "outputs": [
        {
          "internalType": "uint256",
          "name": "_freedAmount",
          "type": "uint256"
        }
      ],
      "stateMutability": "nonpayable",
      "type": "function"
    },
    {
      "inputs": [
        {
          "internalType": "bytes32",
          "name": "role",
          "type": "bytes32"
        }
      ],
      "name": "getRoleAdmin",
      "outputs": [
        {
          "internalType": "bytes32",
          "name": "",
          "type": "bytes32"
        }
      ],
      "stateMutability": "view",
      "type": "function"
    },
    {
      "inputs": [],
      "name": "governor",
      "outputs": [
        {
          "internalType": "address",
          "name": "",
          "type": "address"
        }
      ],
      "stateMutability": "view",
      "type": "function"
    },
    {
      "inputs": [
        {
          "internalType": "bytes32",
          "name": "role",
          "type": "bytes32"
        },
        {
          "internalType": "address",
          "name": "account",
          "type": "address"
        }
      ],
      "name": "grantRole",
      "outputs": [],
      "stateMutability": "nonpayable",
      "type": "function"
    },
    {
      "inputs": [
        {
          "internalType": "bytes32",
          "name": "role",
          "type": "bytes32"
        },
        {
          "internalType": "address",
          "name": "account",
          "type": "address"
        }
      ],
      "name": "hasRole",
      "outputs": [
        {
          "internalType": "bool",
          "name": "",
          "type": "bool"
        }
      ],
      "stateMutability": "view",
      "type": "function"
    },
    {
      "inputs": [
        {
          "internalType": "address",
          "name": "_account",
          "type": "address"
        }
      ],
      "name": "isGovernor",
      "outputs": [
        {
          "internalType": "bool",
          "name": "_isGovernor",
          "type": "bool"
        }
      ],
      "stateMutability": "view",
      "type": "function"
    },
    {
      "inputs": [
        {
          "internalType": "address",
          "name": "_mechanic",
          "type": "address"
        }
      ],
      "name": "isMechanic",
      "outputs": [
        {
          "internalType": "bool",
          "name": "_isMechanic",
          "type": "bool"
        }
      ],
      "stateMutability": "view",
      "type": "function"
    },
    {
      "inputs": [],
      "name": "mechanicsRegistry",
      "outputs": [
        {
          "internalType": "address",
          "name": "_mechanicRegistry",
          "type": "address"
        }
      ],
      "stateMutability": "view",
      "type": "function"
    },
    {
      "inputs": [],
      "name": "pendingGovernor",
      "outputs": [
        {
          "internalType": "address",
          "name": "",
          "type": "address"
        }
      ],
      "stateMutability": "view",
      "type": "function"
    },
    {
      "inputs": [
        {
          "internalType": "uint256",
          "name": "",
          "type": "uint256"
        }
      ],
      "name": "pendingTradesById",
      "outputs": [
        {
          "internalType": "uint256",
          "name": "_id",
          "type": "uint256"
        },
        {
          "internalType": "address",
          "name": "_strategy",
          "type": "address"
        },
        {
          "internalType": "address",
          "name": "_swapper",
          "type": "address"
        },
        {
          "internalType": "address",
          "name": "_tokenIn",
          "type": "address"
        },
        {
          "internalType": "address",
          "name": "_tokenOut",
          "type": "address"
        },
        {
          "internalType": "uint256",
          "name": "_amountIn",
          "type": "uint256"
        },
        {
          "internalType": "uint256",
          "name": "_maxSlippage",
          "type": "uint256"
        },
        {
          "internalType": "uint256",
          "name": "_deadline",
          "type": "uint256"
        }
      ],
      "stateMutability": "view",
      "type": "function"
    },
    {
      "inputs": [
        {
          "internalType": "address",
          "name": "_strategy",
          "type": "address"
        }
      ],
      "name": "pendingTradesIds",
      "outputs": [
        {
          "internalType": "uint256[]",
          "name": "_pendingIds",
          "type": "uint256[]"
        }
      ],
      "stateMutability": "view",
      "type": "function"
    },
    {
      "inputs": [],
      "name": "pendingTradesIds",
      "outputs": [
        {
          "internalType": "uint256[]",
          "name": "_pendingIds",
          "type": "uint256[]"
        }
      ],
      "stateMutability": "view",
      "type": "function"
    },
    {
      "inputs": [
        {
          "internalType": "bytes32",
          "name": "role",
          "type": "bytes32"
        },
        {
          "internalType": "address",
          "name": "account",
          "type": "address"
        }
      ],
      "name": "renounceRole",
      "outputs": [],
      "stateMutability": "nonpayable",
      "type": "function"
    },
    {
      "inputs": [
        {
          "internalType": "bytes32",
          "name": "role",
          "type": "bytes32"
        },
        {
          "internalType": "address",
          "name": "account",
          "type": "address"
        }
      ],
      "name": "revokeRole",
      "outputs": [],
      "stateMutability": "nonpayable",
      "type": "function"
    },
    {
      "inputs": [
        {
          "internalType": "address",
          "name": "_to",
          "type": "address"
        },
        {
          "internalType": "address",
          "name": "_token",
          "type": "address"
        },
        {
          "internalType": "uint256",
          "name": "_amount",
          "type": "uint256"
        }
      ],
      "name": "sendDust",
      "outputs": [],
      "stateMutability": "nonpayable",
      "type": "function"
    },
    {
      "inputs": [
        {
          "internalType": "address",
          "name": "_mechanicsRegistry",
          "type": "address"
        }
      ],
      "name": "setMechanicsRegistry",
      "outputs": [],
      "stateMutability": "nonpayable",
      "type": "function"
    },
    {
      "inputs": [
        {
          "internalType": "address",
          "name": "_pendingGovernor",
          "type": "address"
        }
      ],
      "name": "setPendingGovernor",
      "outputs": [],
      "stateMutability": "nonpayable",
      "type": "function"
    },
    {
      "inputs": [
        {
          "internalType": "uint256",
          "name": "_checkpoint",
          "type": "uint256"
        }
      ],
      "name": "setSwapperSafetyCheckpoint",
      "outputs": [],
      "stateMutability": "nonpayable",
      "type": "function"
    },
    {
      "inputs": [
        {
          "internalType": "bytes4",
          "name": "interfaceId",
          "type": "bytes4"
        }
      ],
      "name": "supportsInterface",
      "outputs": [
        {
          "internalType": "bool",
          "name": "",
          "type": "bool"
        }
      ],
      "stateMutability": "view",
      "type": "function"
    },
    {
      "inputs": [
        {
          "internalType": "address",
          "name": "",
          "type": "address"
        }
      ],
      "name": "swapperSafetyCheckpoint",
      "outputs": [
        {
          "internalType": "uint256",
          "name": "",
          "type": "uint256"
        }
      ],
      "stateMutability": "view",
      "type": "function"
    }
  ],
  "transactionHash": "0xc41d19f4716c3cd5bf186147acaa2c98042f92c535d83233a07c68c4e53a5117",
  "args": [
    "0xB82193725471dC7bfaAB1a3AB93c7b42963F3265",
    "0x7a99923aa2efa71178bb11294349ec1f6b23a814",
    "0xcb12Ac8649eA06Cbb15e29032163938D5F86D8ad"
  ],
  "solcInputHash": "d30ebc85527ecdce8d39cd1c4c44d699",
  "bytecode": "0x60a060405260016003553480156200001657600080fd5b506040516200342e3803806200342e8339810160408190526200003991620002de565b818082856001600160a01b038116620000af5760405162461bcd60e51b815260206004820152602e60248201527f676f7665726e61626c652f676f7665726e6f722d73686f756c642d6e6f742d6260448201526d652d7a65726f2d6164647265737360901b606482015260840160405180910390fd5b600180546001600160a01b0319166001600160a01b0392909216919091179055606081901b6001600160601b0319166080526200011c7f49e347583a7b9e7f325e8963ee1f94127eba81e401796874b5a22f7c8f9d45f7600080516020620033ee833981519152620001bd565b62000146600080516020620033ee8339815191526000805160206200340e833981519152620001bd565b6001546200016e90600080516020620033ee833981519152906001600160a01b031662000211565b60015462000196906000805160206200340e833981519152906001600160a01b031662000211565b50600980546001600160a01b0319166001600160a01b038316179055505050505062000327565b600082815260208190526040902060010154819060405184907fbd79b86ffe0ab8e8776151514217cd7cacd52c909f66475c3af44e129f0b00ff90600090a460009182526020829052604090912060010155565b6200021d828262000221565b5050565b6000828152602081815260408083206001600160a01b038516845290915290205460ff166200021d576000828152602081815260408083206001600160a01b03851684529091529020805460ff191660011790556200027d3390565b6001600160a01b0316816001600160a01b0316837f2f8788117e7eff1d82e926ec794901d17c78024a50270940304540a733656f0d60405160405180910390a45050565b80516001600160a01b0381168114620002d957600080fd5b919050565b600080600060608486031215620002f3578283fd5b620002fe84620002c1565b92506200030e60208501620002c1565b91506200031e60408501620002c1565b90509250925092565b60805160601c6130936200035b6000396000818161049401528181610799015281816115bd0152611b0f01526130936000f3fe608060405234801561001057600080fd5b50600436106101fb5760003560e01c80638992929c1161011a578063e2f15967116100ad578063e454a5ed1161007c578063e454a5ed14610544578063e58bb6391461056b578063ef47da6d14610573578063f235757f14610586578063fe0d94c11461059957600080fd5b8063e2f15967146104dc578063e3056a34146104ef578063e42e54bf14610502578063e43581b81461052257600080fd5b8063a734f06e116100e9578063a734f06e14610474578063b3b48afb1461048f578063bf81bf43146104b6578063d547741f146104c957600080fd5b80638992929c1461042a57806391d1485414610451578063a217fddf14610464578063a2c6f1741461046c57600080fd5b806329866a67116101925780635588fdf1116101615780635588fdf1146103405780635877e98e1461035357806359cd24241461040457806365834acc1461041757600080fd5b806329866a67146102f25780632db8c129146103075780632f2ff15d1461031a57806336568abe1461032d57600080fd5b80630c340a24116101ce5780630c340a241461027e5780631078f388146102a9578063185025ef146102ba578063248a9ca3146102cf57600080fd5b806301ffc9a71461020057806307dc0772146102285780630886120814610248578063099c591f1461025d575b600080fd5b61021361020e366004612c07565b6105ac565b60405190151581526020015b60405180910390f35b61023b610236366004612b0b565b6105e3565b60405161021f9190612ded565b61025b610256366004612bc0565b6106f6565b005b61027061026b366004612c62565b610777565b60405190815260200161021f565b600154610291906001600160a01b031681565b6040516001600160a01b03909116815260200161021f565b6009546001600160a01b0316610291565b61027060008051602061303e83398151915281565b6102706102dd366004612bc0565b60009081526020819052604090206001015490565b6102fa610c83565b60405161021f9190612e3a565b61025b610315366004612b27565b610e91565b61025b610328366004612bd8565b610ecb565b61025b61033b366004612bd8565b610ef1565b61025b61034e366004612bc0565b610f6f565b6103b6610361366004612bc0565b60046020819052600091825260409091208054600182015460028301546003840154948401546005850154600686015460079096015494966001600160a01b0394851696938516959085169490921692909188565b604080519889526001600160a01b0397881660208a01529587169588019590955292851660608701529316608085015260a084019290925260c083019190915260e08201526101000161021f565b6102fa610412366004612b0b565b6110cf565b610213610425366004612b0b565b6111cf565b6102707f8eed360e86e418207f03bdbfeed36c97a429754d5b20cf2ba92a94b5e65c2bb781565b61021361045f366004612bd8565b61124d565b610270600081565b6102fa611276565b61029173eeeeeeeeeeeeeeeeeeeeeeeeeeeeeeeeeeeeeeee81565b6102917f000000000000000000000000000000000000000000000000000000000000000081565b6102706104c4366004612bc0565b611334565b61025b6104d7366004612bd8565b611575565b6102fa6104ea366004612c2f565b61159b565b600254610291906001600160a01b031681565b610270610510366004612b0b565b60056020526000908152604090205481565b610213610530366004612b0b565b6001546001600160a01b0391821691161490565b6102707f0b43cb2c88b4e8fc5d4ac1352ba889b22584df0c58c4b5b589731a1c9f6f29d381565b61025b611858565b61025b610581366004612b0b565b6118bc565b61025b610594366004612b0b565b611907565b6102706105a7366004612bc0565b61193a565b60006001600160e01b03198216637965db0b60e01b14806105dd57506301ffc9a760e01b6001600160e01b03198316145b92915050565b6001600160a01b0381166000908152600a6020526040902060609061060790611d47565b67ffffffffffffffff81111561062d57634e487b7160e01b600052604160045260246000fd5b604051908082528060200260200182016040528015610656578160200160208202803683370190505b50905060005b6001600160a01b0383166000908152600a6020526040902061067d90611d47565b8110156106f0576001600160a01b0383166000908152600a602052604090206106a69082611d51565b8282815181106106c657634e487b7160e01b600052603260045260246000fd5b6001600160a01b0390921660209283029190910190910152806106e881612fe1565b91505061065c565b50919050565b60008051602061303e83398151915261070f8133611d64565b428211156107645760405162461bcd60e51b815260206004820181905260248201527f5472616465466163746f72793a20696e76616c696420636865636b706f696e7460448201526064015b60405180910390fd5b5033600090815260056020526040902055565b600060008051602061303e8339815191526107928133611d64565b60008060007f00000000000000000000000000000000000000000000000000000000000000006001600160a01b031663bbce1bca8c6040518263ffffffff1660e01b81526004016107e39190612e7b565b60606040518083038186803b1580156107fb57600080fd5b505afa15801561080f573d6000803e3d6000fd5b505050506040513d601f19601f820116820180604052508101906108339190612b81565b925092509250826108865760405162461bcd60e51b815260206004820152601d60248201527f5472616465466163746f72793a20696e76616c69642073776170706572000000604482015260640161075b565b336000908152600560205260409020548111156108b55760405162461bcd60e51b815260040161075b90612efc565b6001600160a01b038a16158015906108d557506001600160a01b03891615155b6109215760405162461bcd60e51b815260206004820152601a60248201527f5472616465466163746f72793a207a65726f2061646472657373000000000000604482015260640161075b565b600088116109715760405162461bcd60e51b815260206004820152601960248201527f5472616465466163746f72793a207a65726f20616d6f756e7400000000000000604482015260640161075b565b600087116109c15760405162461bcd60e51b815260206004820152601b60248201527f5472616465466163746f72793a207a65726f20736c6970706167650000000000604482015260640161075b565b854210610a105760405162461bcd60e51b815260206004820152601f60248201527f5472616465466163746f72793a20646561646c696e6520746f6f20736f6f6e00604482015260640161075b565b600354945060006040518061010001604052806003548152602001336001600160a01b03168152602001846001600160a01b031681526020018c6001600160a01b031681526020018b6001600160a01b031681526020018a81526020018981526020018881525090508060046000836000015181526020019081526020016000206000820151816000015560208201518160010160006101000a8154816001600160a01b0302191690836001600160a01b0316021790555060408201518160020160006101000a8154816001600160a01b0302191690836001600160a01b0316021790555060608201518160030160006101000a8154816001600160a01b0302191690836001600160a01b0316021790555060808201518160040160006101000a8154816001600160a01b0302191690836001600160a01b0316021790555060a0820151816005015560c0820151816006015560e08201518160070155905050610bab816000015160086000336001600160a01b03166001600160a01b03168152602001908152602001600020611dc890919063ffffffff16565b508051610bba90600690611dc8565b50600160036000828254610bce9190612f50565b9091555050805160208201516040808401516060850151608086015160a087015160c088015160e089015195517f399699ab6f1401e7784608cbdabe944658876a522eb163c69fd166dbf2776c4f97610c6c97909695949392916001600160a01b03978816815295871660208701529386166040860152919094166060840152608083019390935260a082019290925260c081019190915260e00190565b60405180910390a250505050509695505050505050565b606060008051602061303e833981519152610c9e8133611d64565b336000908152600860205260408120610cb690611d47565b11610d195760405162461bcd60e51b815260206004820152602d60248201527f5472616465466163746f72793a206e6f207472616465732070656e64696e672060448201526c66726f6d20737472617465677960981b606482015260840161075b565b336000908152600860205260409020610d3190611d47565b67ffffffffffffffff811115610d5757634e487b7160e01b600052604160045260246000fd5b604051908082528060200260200182016040528015610d80578160200160208202803683370190505b50915060005b336000908152600860205260409020610d9e90611d47565b811015610dfb57336000908152600860205260409020610dbe9082611d51565b838281518110610dde57634e487b7160e01b600052603260045260246000fd5b602090810291909101015280610df381612fe1565b915050610d86565b5060005b8251811015610e4b57610e3933848381518110610e2c57634e487b7160e01b600052603260045260246000fd5b6020026020010151611dd4565b80610e4381612fe1565b915050610dff565b50336001600160a01b03167fbc02525bfba972df6ef3d6d34e6f4773de0e098177c254a62a4926ec94fdaea683604051610e859190612e3a565b60405180910390a25090565b6001546001600160a01b03163314610ebb5760405162461bcd60e51b815260040161075b90612e8e565b610ec6838383611e5f565b505050565b600082815260208190526040902060010154610ee78133611d64565b610ec68383612001565b6001600160a01b0381163314610f615760405162461bcd60e51b815260206004820152602f60248201527f416363657373436f6e74726f6c3a2063616e206f6e6c792072656e6f756e636560448201526e103937b632b9903337b91039b2b63360891b606482015260840161075b565b610f6b8282612085565b5050565b60008051602061303e833981519152610f888133611d64565b610f936006836120ea565b610faf5760405162461bcd60e51b815260040161075b90612ec5565b6000828152600460205260409020600101546001600160a01b031633146110185760405162461bcd60e51b815260206004820181905260248201527f5472616465466163746f72793a20646f6573206e6f74206f776e207472616465604482015260640161075b565b6000828152600460208181526040928390208351610100810185528154815260018201546001600160a01b039081169382018490526002830154811695820195909552600382015485166060820152928101549093166080830152600583015460a0830152600683015460c083015260079092015460e08201529061109d9084611dd4565b604051839033907fc036ffe8eab201772430a4259f57e5ed5cd8fc42ecc80be53bb03012d983aea090600090a3505050565b6001600160a01b03811660009081526008602052604090206060906110f390611d47565b67ffffffffffffffff81111561111957634e487b7160e01b600052604160045260246000fd5b604051908082528060200260200182016040528015611142578160200160208202803683370190505b50905060005b6001600160a01b038316600090815260086020526040902061116990611d47565b8110156106f0576001600160a01b03831660009081526008602052604090206111929082611d51565b8282815181106111b257634e487b7160e01b600052603260045260246000fd5b6020908102919091010152806111c781612fe1565b915050611148565b600954604051631960d2b360e21b81526001600160a01b03838116600483015260009216906365834acc9060240160206040518083038186803b15801561121557600080fd5b505afa158015611229573d6000803e3d6000fd5b505050506040513d601f19601f820116820180604052508101906105dd9190612b67565b6000918252602082815260408084206001600160a01b0393909316845291905290205460ff1690565b60606112826006611d47565b67ffffffffffffffff8111156112a857634e487b7160e01b600052604160045260246000fd5b6040519080825280602002602001820160405280156112d1578160200160208202803683370190505b50905060005b6112e16006611d47565b811015611330576112f3600682611d51565b82828151811061131357634e487b7160e01b600052603260045260246000fd5b60209081029190910101528061132881612fe1565b9150506112d7565b5090565b600954604051631960d2b360e21b81523360048201526000916001600160a01b0316906365834acc9060240160206040518083038186803b15801561137857600080fd5b505afa15801561138c573d6000803e3d6000fd5b505050506040513d601f19601f820116820180604052508101906113b09190612b67565b6113f65760405162461bcd60e51b81526020600482015260176024820152764d616368696e6572793a206e6f74206d656368616e696360481b604482015260640161075b565b6114016006836120ea565b61141d5760405162461bcd60e51b815260040161075b90612ec5565b6000828152600460208181526040928390208351610100810185528154815260018201546001600160a01b0390811693820193909352600282015483169481019490945260038101548216606085015291820154166080830152600581015460a0830152600681015460c08301526007015460e082018190524210156114e55760405162461bcd60e51b815260206004820152601f60248201527f5472616465466163746f72793a207472616465206e6f74206578706972656400604482015260640161075b565b60a08101516020820151606083015191935061150c916001600160a01b0316903085612102565b61153681602001518260a0015183606001516001600160a01b03166121739092919063ffffffff16565b611544816020015184611dd4565b60405183907fcfbcbfeee9ccb107958511dda6b71f9144382df7a0799b7a0aad567f2b6fbce390600090a250919050565b6000828152602081905260409020600101546115918133611d64565b610ec68383612085565b606060008051602061303e8339815191526115b68133611d64565b60008060007f00000000000000000000000000000000000000000000000000000000000000006001600160a01b031663bbce1bca876040518263ffffffff1660e01b81526004016116079190612e7b565b60606040518083038186803b15801561161f57600080fd5b505afa158015611633573d6000803e3d6000fd5b505050506040513d601f19601f820116820180604052508101906116579190612b81565b925092509250826116aa5760405162461bcd60e51b815260206004820152601d60248201527f5472616465466163746f72793a20696e76616c69642073776170706572000000604482015260640161075b565b336000908152600560205260409020548111156116d95760405162461bcd60e51b815260040161075b90612efc565b3360009081526008602052604090206116f190611d47565b67ffffffffffffffff81111561171757634e487b7160e01b600052604160045260246000fd5b604051908082528060200260200182016040528015611740578160200160208202803683370190505b50945060005b33600090815260086020526040902061175e90611d47565b81101561180b5733600090815260086020526040812084916004916117839085611d51565b81526020808201929092526040908101600090812060020180546001600160a01b0319166001600160a01b039590951694909417909355338352600890915290206117ce9082611d51565b8682815181106117ee57634e487b7160e01b600052603260045260246000fd5b60209081029190910101528061180381612fe1565b915050611746565b50336001600160a01b03167f962eed4b6e6f9f8514a4e0c50c2483216d4abee4d7649e63b3766dd9c1ab4ae78688604051611847929190612e4d565b60405180910390a250505050919050565b6002546001600160a01b031633146118b25760405162461bcd60e51b815260206004820181905260248201527f676f7665726e61626c652f6f6e6c792d70656e64696e672d676f7665726e6f72604482015260640161075b565b6118ba6121a3565b565b6001546001600160a01b031633146118e65760405162461bcd60e51b815260040161075b90612e8e565b600980546001600160a01b0319166001600160a01b03831617905550565b50565b6001546001600160a01b031633146119315760405162461bcd60e51b815260040161075b90612e8e565b611904816121f3565b600954604051631960d2b360e21b81523360048201526000916001600160a01b0316906365834acc9060240160206040518083038186803b15801561197e57600080fd5b505afa158015611992573d6000803e3d6000fd5b505050506040513d601f19601f820116820180604052508101906119b69190612b67565b6119fc5760405162461bcd60e51b81526020600482015260176024820152764d616368696e6572793a206e6f74206d656368616e696360481b604482015260640161075b565b611a076006836120ea565b611a235760405162461bcd60e51b815260040161075b90612ec5565b6000828152600460208181526040928390208351610100810185528154815260018201546001600160a01b0390811693820193909352600282015483169481019490945260038101548216606085015291820154166080830152600581015460a0830152600681015460c08301526007015460e08201819052421115611aeb5760405162461bcd60e51b815260206004820152601f60248201527f5472616465466163746f72793a20747261646520686173206578706972656400604482015260640161075b565b60408181015190516306df000760e41b81526001600160a01b0391821660048201527f000000000000000000000000000000000000000000000000000000000000000090911690636df000709060240160206040518083038186803b158015611b5357600080fd5b505afa158015611b67573d6000803e3d6000fd5b505050506040513d601f19601f82011682018060405250810190611b8b9190612b67565b15611bd85760405162461bcd60e51b815260206004820181905260248201527f5472616465466163746f72793a20646570726563617465642073776170706572604482015260640161075b565b60608101516040808301516001600160a01b03166000908152600a60205220611c00916122bb565b611c1657611c16816040015182606001516122dd565b611c428160200151308360a0015184606001516001600160a01b0316612102909392919063ffffffff16565b60408082015160208301516060840151608085015160a086015160c087015195516371a1ff0960e11b81526001600160a01b0394851660048201529284166024840152908316604483015260648201526084810193909352169063e343fe129060a401602060405180830381600087803b158015611cbf57600080fd5b505af1158015611cd3573d6000803e3d6000fd5b505050506040513d601f19601f82011682018060405250810190611cf79190612cde565b9150611d07816020015184611dd4565b827f589de19ac049f650e30154ebb6ba9be12c5394027648b0ff506705d197ec708683604051611d3991815260200190565b60405180910390a250919050565b60006105dd825490565b6000611d5d838361235a565b9392505050565b611d6e828261124d565b610f6b57611d86816001600160a01b03166014612392565b611d91836020612392565b604051602001611da2929190612d78565b60408051601f198184030181529082905262461bcd60e51b825261075b91600401612e7b565b6000611d5d8383612574565b6001600160a01b0382166000908152600860205260409020611df690826125c3565b50611e026006826125c3565b50600090815260046020819052604082208281556001810180546001600160a01b03199081169091556002820180548216905560038201805482169055918101805490921690915560058101829055600681018290556007015550565b6001600160a01b038316611ecd5760405162461bcd60e51b815260206004820152602f60248201527f636f6c6c65637461626c652d647573742f63616e742d73656e642d647573742d60448201526e746f2d7a65726f2d6164647265737360881b606482015260840161075b565b611ed8600b836122bb565b15611f3c5760405162461bcd60e51b815260206004820152602e60248201527f636f6c6c65637461626c652d647573742f746f6b656e2d69732d706172742d6f60448201526d198b5d1a194b5c1c9bdd1bd8dbdb60921b606482015260840161075b565b6001600160a01b03821673eeeeeeeeeeeeeeeeeeeeeeeeeeeeeeeeeeeeeeee1415611f9d576040516001600160a01b0384169082156108fc029083906000818181858888f19350505050158015611f97573d6000803e3d6000fd5b50611fb1565b611fb16001600160a01b0383168483612173565b604080516001600160a01b038086168252841660208201529081018290527f1e34c1aee8e83c2dcc14c21bb4bfeea7f46c0c998cb797ac7cc4d7a18f5c656b9060600160405180910390a1505050565b61200b828261124d565b610f6b576000828152602081815260408083206001600160a01b03851684529091529020805460ff191660011790556120413390565b6001600160a01b0316816001600160a01b0316837f2f8788117e7eff1d82e926ec794901d17c78024a50270940304540a733656f0d60405160405180910390a45050565b61208f828261124d565b15610f6b576000828152602081815260408083206001600160a01b0385168085529252808320805460ff1916905551339285917ff6391f5c32d9c69d2a47ea670b442974b53935d1edc7fd64eb21e047a839171b9190a45050565b60008181526001830160205260408120541515611d5d565b6040516001600160a01b038085166024830152831660448201526064810182905261216d9085906323b872dd60e01b906084015b60408051601f198184030181529190526020810180516001600160e01b03166001600160e01b0319909316929092179091526125cf565b50505050565b6040516001600160a01b038316602482015260448101829052610ec690849063a9059cbb60e01b90606401612136565b60028054600180546001600160a01b03199081166001600160a01b038416179091551690556040517f7880f0fcc848e1f26e461654b100a69f8d0641e29aa29f6596c6afadbb36b5ea90600090a1565b6001600160a01b0381166122675760405162461bcd60e51b815260206004820152603560248201527f676f7665726e61626c652f70656e64696e672d676f7665726e6f722d73686f756044820152746c642d6e6f742d62652d7a65726f2d61646472657360581b606482015260840161075b565b600280546001600160a01b0319166001600160a01b0383169081179091556040519081527f56bddfa0cee9697cebddf9acd7f23dc6583663b05e007b877056d05017994def9060200160405180910390a150565b6001600160a01b03811660009081526001830160205260408120541515611d5d565b6122f36001600160a01b038216836000196126a1565b6001600160a01b0382166000908152600a6020526040902061231590826127c5565b506040516001600160a01b0382811682528316907fca338b12f744b3a015d8436ee96c4b9c73826faed1fbb50e689f05e0ba02f5279060200160405180910390a25050565b600082600001828154811061237f57634e487b7160e01b600052603260045260246000fd5b9060005260206000200154905092915050565b606060006123a1836002612f68565b6123ac906002612f50565b67ffffffffffffffff8111156123d257634e487b7160e01b600052604160045260246000fd5b6040519080825280601f01601f1916602001820160405280156123fc576020820181803683370190505b509050600360fc1b8160008151811061242557634e487b7160e01b600052603260045260246000fd5b60200101906001600160f81b031916908160001a905350600f60fb1b8160018151811061246257634e487b7160e01b600052603260045260246000fd5b60200101906001600160f81b031916908160001a9053506000612486846002612f68565b612491906001612f50565b90505b6001811115612525576f181899199a1a9b1b9c1cb0b131b232b360811b85600f16601081106124d357634e487b7160e01b600052603260045260246000fd5b1a60f81b8282815181106124f757634e487b7160e01b600052603260045260246000fd5b60200101906001600160f81b031916908160001a90535060049490941c9361251e81612fca565b9050612494565b508315611d5d5760405162461bcd60e51b815260206004820181905260248201527f537472696e67733a20686578206c656e67746820696e73756666696369656e74604482015260640161075b565b60008181526001830160205260408120546125bb575081546001818101845560008481526020808220909301849055845484825282860190935260409020919091556105dd565b5060006105dd565b6000611d5d83836127da565b6000612624826040518060400160405280602081526020017f5361666545524332303a206c6f772d6c6576656c2063616c6c206661696c6564815250856001600160a01b03166128f79092919063ffffffff16565b805190915015610ec657808060200190518101906126429190612b67565b610ec65760405162461bcd60e51b815260206004820152602a60248201527f5361666545524332303a204552433230206f7065726174696f6e20646964206e6044820152691bdd081cdd58d8d9595960b21b606482015260840161075b565b80158061272a5750604051636eb1769f60e11b81523060048201526001600160a01b03838116602483015284169063dd62ed3e9060440160206040518083038186803b1580156126f057600080fd5b505afa158015612704573d6000803e3d6000fd5b505050506040513d601f19601f820116820180604052508101906127289190612cde565b155b6127955760405162461bcd60e51b815260206004820152603660248201527f5361666545524332303a20617070726f76652066726f6d206e6f6e2d7a65726f60448201527520746f206e6f6e2d7a65726f20616c6c6f77616e636560501b606482015260840161075b565b6040516001600160a01b038316602482015260448101829052610ec690849063095ea7b360e01b90606401612136565b6000611d5d836001600160a01b038416612574565b600081815260018301602052604081205480156128ed5760006127fe600183612f87565b855490915060009061281290600190612f87565b905081811461289357600086600001828154811061284057634e487b7160e01b600052603260045260246000fd5b906000526020600020015490508087600001848154811061287157634e487b7160e01b600052603260045260246000fd5b6000918252602080832090910192909255918252600188019052604090208390555b85548690806128b257634e487b7160e01b600052603160045260246000fd5b6001900381819060005260206000200160009055905585600101600086815260200190815260200160002060009055600193505050506105dd565b60009150506105dd565b6060612906848460008561290e565b949350505050565b60608247101561296f5760405162461bcd60e51b815260206004820152602660248201527f416464726573733a20696e73756666696369656e742062616c616e636520666f6044820152651c8818d85b1b60d21b606482015260840161075b565b843b6129bd5760405162461bcd60e51b815260206004820152601d60248201527f416464726573733a2063616c6c20746f206e6f6e2d636f6e7472616374000000604482015260640161075b565b600080866001600160a01b031685876040516129d99190612d5c565b60006040518083038185875af1925050503d8060008114612a16576040519150601f19603f3d011682016040523d82523d6000602084013e612a1b565b606091505b5091509150612a2b828286612a36565b979650505050505050565b60608315612a45575081611d5d565b825115612a555782518084602001fd5b8160405162461bcd60e51b815260040161075b9190612e7b565b80518015158114612a7f57600080fd5b919050565b600082601f830112612a94578081fd5b813567ffffffffffffffff80821115612aaf57612aaf613012565b604051601f8301601f19908116603f01168101908282118183101715612ad757612ad7613012565b81604052838152866020858801011115612aef578485fd5b8360208701602083013792830160200193909352509392505050565b600060208284031215612b1c578081fd5b8135611d5d81613028565b600080600060608486031215612b3b578182fd5b8335612b4681613028565b92506020840135612b5681613028565b929592945050506040919091013590565b600060208284031215612b78578081fd5b611d5d82612a6f565b600080600060608486031215612b95578283fd5b612b9e84612a6f565b92506020840151612bae81613028565b80925050604084015190509250925092565b600060208284031215612bd1578081fd5b5035919050565b60008060408385031215612bea578182fd5b823591506020830135612bfc81613028565b809150509250929050565b600060208284031215612c18578081fd5b81356001600160e01b031981168114611d5d578182fd5b600060208284031215612c40578081fd5b813567ffffffffffffffff811115612c56578182fd5b61290684828501612a84565b60008060008060008060c08789031215612c7a578182fd5b863567ffffffffffffffff811115612c90578283fd5b612c9c89828a01612a84565b9650506020870135612cad81613028565b94506040870135612cbd81613028565b959894975094956060810135955060808101359460a0909101359350915050565b600060208284031215612cef578081fd5b5051919050565b6000815180845260208085019450808401835b83811015612d2557815187529582019590820190600101612d09565b509495945050505050565b60008151808452612d48816020860160208601612f9e565b601f01601f19169290920160200192915050565b60008251612d6e818460208701612f9e565b9190910192915050565b7f416363657373436f6e74726f6c3a206163636f756e7420000000000000000000815260008351612db0816017850160208801612f9e565b7001034b99036b4b9b9b4b733903937b6329607d1b6017918401918201528351612de1816028840160208801612f9e565b01602801949350505050565b6020808252825182820181905260009190848201906040850190845b81811015612e2e5783516001600160a01b031683529284019291840191600101612e09565b50909695505050505050565b602081526000611d5d6020830184612cf6565b604081526000612e606040830185612cf6565b8281036020840152612e728185612d30565b95945050505050565b602081526000611d5d6020830184612d30565b60208082526018908201527f676f7665726e61626c652f6f6e6c792d676f7665726e6f720000000000000000604082015260600190565b6020808252601f908201527f5472616465466163746f72793a207472616465206e6f742070656e64696e6700604082015260600190565b60208082526034908201527f5472616465466163746f72793a20696e697469616c697a6174696f6e20677265604082015273185d195c881d1a185b8818da1958dadc1bda5b9d60621b606082015260800190565b60008219821115612f6357612f63612ffc565b500190565b6000816000190483118215151615612f8257612f82612ffc565b500290565b600082821015612f9957612f99612ffc565b500390565b60005b83811015612fb9578181015183820152602001612fa1565b8381111561216d5750506000910152565b600081612fd957612fd9612ffc565b506000190190565b6000600019821415612ff557612ff5612ffc565b5060010190565b634e487b7160e01b600052601160045260246000fd5b634e487b7160e01b600052604160045260246000fd5b6001600160a01b038116811461190457600080fdfe49e347583a7b9e7f325e8963ee1f94127eba81e401796874b5a22f7c8f9d45f7a26469706673582212205a0c719fda2f448493271d8897538284bee0a008b1abb0d805dda07fc3174be364736f6c634300080400338eed360e86e418207f03bdbfeed36c97a429754d5b20cf2ba92a94b5e65c2bb70b43cb2c88b4e8fc5d4ac1352ba889b22584df0c58c4b5b589731a1c9f6f29d3",
  "devdoc": {
    "kind": "dev",
    "methods": {
      "getRoleAdmin(bytes32)": {
        "details": "Returns the admin role that controls `role`. See {grantRole} and {revokeRole}. To change a role's admin, use {_setRoleAdmin}."
      },
      "grantRole(bytes32,address)": {
        "details": "Grants `role` to `account`. If `account` had not been already granted `role`, emits a {RoleGranted} event. Requirements: - the caller must have ``role``'s admin role."
      },
      "hasRole(bytes32,address)": {
        "details": "Returns `true` if `account` has been granted `role`."
      },
      "renounceRole(bytes32,address)": {
        "details": "Revokes `role` from the calling account. Roles are often managed via {grantRole} and {revokeRole}: this function's purpose is to provide a mechanism for accounts to lose their privileges if they are compromised (such as when a trusted device is misplaced). If the calling account had been granted `role`, emits a {RoleRevoked} event. Requirements: - the caller must be `account`."
      },
      "revokeRole(bytes32,address)": {
        "details": "Revokes `role` from `account`. If `account` had been granted `role`, emits a {RoleRevoked} event. Requirements: - the caller must have ``role``'s admin role."
      },
      "supportsInterface(bytes4)": {
        "details": "See {IERC165-supportsInterface}."
      }
    },
    "version": 1
  },
  "userdoc": {
    "kind": "user",
    "methods": {},
    "version": 1
  },
  "storageLayout": {
    "storage": [
      {
        "astId": 516,
        "contract": "contracts/TradeFactory/TradeFactory.sol:TradeFactory",
        "label": "_roles",
        "offset": 0,
        "slot": "0",
        "type": "t_mapping(t_bytes32,t_struct(RoleData)511_storage)"
      },
      {
        "astId": 132,
        "contract": "contracts/TradeFactory/TradeFactory.sol:TradeFactory",
        "label": "governor",
        "offset": 0,
        "slot": "1",
        "type": "t_address"
      },
      {
        "astId": 135,
        "contract": "contracts/TradeFactory/TradeFactory.sol:TradeFactory",
        "label": "pendingGovernor",
        "offset": 0,
        "slot": "2",
        "type": "t_address"
      },
      {
        "astId": 5643,
        "contract": "contracts/TradeFactory/TradeFactory.sol:TradeFactory",
        "label": "_tradeCounter",
        "offset": 0,
        "slot": "3",
        "type": "t_uint256"
      },
      {
        "astId": 5649,
        "contract": "contracts/TradeFactory/TradeFactory.sol:TradeFactory",
        "label": "pendingTradesById",
        "offset": 0,
        "slot": "4",
        "type": "t_mapping(t_uint256,t_struct(Trade)5482_storage)"
      },
      {
        "astId": 5654,
        "contract": "contracts/TradeFactory/TradeFactory.sol:TradeFactory",
        "label": "swapperSafetyCheckpoint",
        "offset": 0,
        "slot": "5",
        "type": "t_mapping(t_address,t_uint256)"
      },
      {
        "astId": 5657,
        "contract": "contracts/TradeFactory/TradeFactory.sol:TradeFactory",
        "label": "_pendingTradesIds",
        "offset": 0,
        "slot": "6",
        "type": "t_struct(UintSet)2759_storage"
      },
      {
        "astId": 5662,
        "contract": "contracts/TradeFactory/TradeFactory.sol:TradeFactory",
        "label": "_pendingTradesByOwner",
        "offset": 0,
        "slot": "8",
        "type": "t_mapping(t_address,t_struct(UintSet)2759_storage)"
      },
      {
        "astId": 272,
        "contract": "contracts/TradeFactory/TradeFactory.sol:TradeFactory",
        "label": "_mechanicsRegistry",
        "offset": 0,
        "slot": "9",
        "type": "t_contract(IMechanicsRegistry)379"
      },
      {
        "astId": 5176,
        "contract": "contracts/TradeFactory/TradeFactory.sol:TradeFactory",
        "label": "_approvedTokensBySwappers",
        "offset": 0,
        "slot": "10",
        "type": "t_mapping(t_address,t_struct(AddressSet)2632_storage)"
      },
      {
        "astId": 21,
        "contract": "contracts/TradeFactory/TradeFactory.sol:TradeFactory",
        "label": "protocolTokens",
        "offset": 0,
        "slot": "11",
        "type": "t_struct(AddressSet)2632_storage"
      }
    ],
    "types": {
      "t_address": {
        "encoding": "inplace",
        "label": "address",
        "numberOfBytes": "20"
      },
      "t_array(t_bytes32)dyn_storage": {
        "base": "t_bytes32",
        "encoding": "dynamic_array",
        "label": "bytes32[]",
        "numberOfBytes": "32"
      },
      "t_bool": {
        "encoding": "inplace",
        "label": "bool",
        "numberOfBytes": "1"
      },
      "t_bytes32": {
        "encoding": "inplace",
        "label": "bytes32",
        "numberOfBytes": "32"
      },
      "t_contract(IMechanicsRegistry)379": {
        "encoding": "inplace",
        "label": "contract IMechanicsRegistry",
        "numberOfBytes": "20"
      },
      "t_mapping(t_address,t_bool)": {
        "encoding": "mapping",
        "key": "t_address",
        "label": "mapping(address => bool)",
        "numberOfBytes": "32",
        "value": "t_bool"
      },
      "t_mapping(t_address,t_struct(AddressSet)2632_storage)": {
        "encoding": "mapping",
        "key": "t_address",
        "label": "mapping(address => struct EnumerableSet.AddressSet)",
        "numberOfBytes": "32",
        "value": "t_struct(AddressSet)2632_storage"
      },
      "t_mapping(t_address,t_struct(UintSet)2759_storage)": {
        "encoding": "mapping",
        "key": "t_address",
        "label": "mapping(address => struct EnumerableSet.UintSet)",
        "numberOfBytes": "32",
        "value": "t_struct(UintSet)2759_storage"
      },
      "t_mapping(t_address,t_uint256)": {
        "encoding": "mapping",
        "key": "t_address",
        "label": "mapping(address => uint256)",
        "numberOfBytes": "32",
        "value": "t_uint256"
      },
      "t_mapping(t_bytes32,t_struct(RoleData)511_storage)": {
        "encoding": "mapping",
        "key": "t_bytes32",
        "label": "mapping(bytes32 => struct AccessControl.RoleData)",
        "numberOfBytes": "32",
        "value": "t_struct(RoleData)511_storage"
      },
      "t_mapping(t_bytes32,t_uint256)": {
        "encoding": "mapping",
        "key": "t_bytes32",
        "label": "mapping(bytes32 => uint256)",
        "numberOfBytes": "32",
        "value": "t_uint256"
      },
      "t_mapping(t_uint256,t_struct(Trade)5482_storage)": {
        "encoding": "mapping",
        "key": "t_uint256",
        "label": "mapping(uint256 => struct ITradeFactoryPositionsHandler.Trade)",
        "numberOfBytes": "32",
        "value": "t_struct(Trade)5482_storage"
      },
      "t_struct(AddressSet)2632_storage": {
        "encoding": "inplace",
        "label": "struct EnumerableSet.AddressSet",
        "members": [
          {
            "astId": 2631,
            "contract": "contracts/TradeFactory/TradeFactory.sol:TradeFactory",
            "label": "_inner",
            "offset": 0,
            "slot": "0",
            "type": "t_struct(Set)2361_storage"
          }
        ],
        "numberOfBytes": "64"
      },
      "t_struct(RoleData)511_storage": {
        "encoding": "inplace",
        "label": "struct AccessControl.RoleData",
        "members": [
          {
            "astId": 508,
            "contract": "contracts/TradeFactory/TradeFactory.sol:TradeFactory",
            "label": "members",
            "offset": 0,
            "slot": "0",
            "type": "t_mapping(t_address,t_bool)"
          },
          {
            "astId": 510,
            "contract": "contracts/TradeFactory/TradeFactory.sol:TradeFactory",
            "label": "adminRole",
            "offset": 0,
            "slot": "1",
            "type": "t_bytes32"
          }
        ],
        "numberOfBytes": "64"
      },
      "t_struct(Set)2361_storage": {
        "encoding": "inplace",
        "label": "struct EnumerableSet.Set",
        "members": [
          {
            "astId": 2356,
            "contract": "contracts/TradeFactory/TradeFactory.sol:TradeFactory",
            "label": "_values",
            "offset": 0,
            "slot": "0",
            "type": "t_array(t_bytes32)dyn_storage"
          },
          {
            "astId": 2360,
            "contract": "contracts/TradeFactory/TradeFactory.sol:TradeFactory",
            "label": "_indexes",
            "offset": 0,
            "slot": "1",
            "type": "t_mapping(t_bytes32,t_uint256)"
          }
        ],
        "numberOfBytes": "64"
      },
      "t_struct(Trade)5482_storage": {
        "encoding": "inplace",
        "label": "struct ITradeFactoryPositionsHandler.Trade",
        "members": [
          {
            "astId": 5467,
            "contract": "contracts/TradeFactory/TradeFactory.sol:TradeFactory",
            "label": "_id",
            "offset": 0,
            "slot": "0",
            "type": "t_uint256"
          },
          {
            "astId": 5469,
            "contract": "contracts/TradeFactory/TradeFactory.sol:TradeFactory",
            "label": "_strategy",
            "offset": 0,
            "slot": "1",
            "type": "t_address"
          },
          {
            "astId": 5471,
            "contract": "contracts/TradeFactory/TradeFactory.sol:TradeFactory",
            "label": "_swapper",
            "offset": 0,
            "slot": "2",
            "type": "t_address"
          },
          {
            "astId": 5473,
            "contract": "contracts/TradeFactory/TradeFactory.sol:TradeFactory",
            "label": "_tokenIn",
            "offset": 0,
            "slot": "3",
            "type": "t_address"
          },
          {
            "astId": 5475,
            "contract": "contracts/TradeFactory/TradeFactory.sol:TradeFactory",
            "label": "_tokenOut",
            "offset": 0,
            "slot": "4",
            "type": "t_address"
          },
          {
            "astId": 5477,
            "contract": "contracts/TradeFactory/TradeFactory.sol:TradeFactory",
            "label": "_amountIn",
            "offset": 0,
            "slot": "5",
            "type": "t_uint256"
          },
          {
            "astId": 5479,
            "contract": "contracts/TradeFactory/TradeFactory.sol:TradeFactory",
            "label": "_maxSlippage",
            "offset": 0,
            "slot": "6",
            "type": "t_uint256"
          },
          {
            "astId": 5481,
            "contract": "contracts/TradeFactory/TradeFactory.sol:TradeFactory",
            "label": "_deadline",
            "offset": 0,
            "slot": "7",
            "type": "t_uint256"
          }
        ],
        "numberOfBytes": "256"
      },
      "t_struct(UintSet)2759_storage": {
        "encoding": "inplace",
        "label": "struct EnumerableSet.UintSet",
        "members": [
          {
            "astId": 2758,
            "contract": "contracts/TradeFactory/TradeFactory.sol:TradeFactory",
            "label": "_inner",
            "offset": 0,
            "slot": "0",
            "type": "t_struct(Set)2361_storage"
          }
        ],
        "numberOfBytes": "64"
      },
      "t_uint256": {
        "encoding": "inplace",
        "label": "uint256",
        "numberOfBytes": "32"
      }
    }
  }
}